{"abi":[{"type":"function","name":"calculateFunderVotingPower","inputs":[{"name":"_funder","type":"address","internalType":"address"},{"name":"_projectId","type":"uint256","internalType":"uint256"}],"outputs":[{"name":"votingPower","type":"uint256","internalType":"uint256"}],"stateMutability":"view"},{"type":"function","name":"createProject","inputs":[{"name":"_name","type":"string","internalType":"string"},{"name":"_description","type":"string","internalType":"string"},{"name":"_targetAmount","type":"uint256","internalType":"uint256"},{"name":"_deadline","type":"uint256","internalType":"uint256"},{"name":"_milestoneCount","type":"uint256","internalType":"uint256"},{"name":"_milestoneBased","type":"bool","internalType":"bool"},{"name":"_timeForMileStoneVotingProcess","type":"uint256","internalType":"uint256"}],"outputs":[],"stateMutability":"nonpayable"},{"type":"function","name":"finalizeVotingProcess","inputs":[{"name":"_projectId","type":"uint256","internalType":"uint256"}],"outputs":[],"stateMutability":"nonpayable"},{"type":"function","name":"fundProject","inputs":[{"name":"_projectId","type":"uint256","internalType":"uint256"}],"outputs":[],"stateMutability":"payable"},{"type":"function","name":"getAmountWithdrawableForAProject","inputs":[{"name":"_projectId","type":"uint256","internalType":"uint256"}],"outputs":[{"name":"","type":"uint256","internalType":"uint256"}],"stateMutability":"view"},{"type":"function","name":"getProjectAmountWithdrawn","inputs":[{"name":"_projectId","type":"uint256","internalType":"uint256"}],"outputs":[{"name":"","type":"uint256","internalType":"uint256"}],"stateMutability":"view"},{"type":"function","name":"getProjectBalance","inputs":[{"name":"_projectId","type":"uint256","internalType":"uint256"}],"outputs":[{"name":"","type":"uint256","internalType":"uint256"}],"stateMutability":"view"},{"type":"function","name":"getProjectBasicInfo","inputs":[{"name":"_projectId","type":"uint256","internalType":"uint256"}],"outputs":[{"name":"","type":"tuple","internalType":"struct StageRaise.ProjectInfo","components":[{"name":"owner","type":"address","internalType":"address"},{"name":"name","type":"string","internalType":"string"},{"name":"description","type":"string","internalType":"string"},{"name":"targetAmount","type":"uint256","internalType":"uint256"},{"name":"raisedAmount","type":"uint256","internalType":"uint256"},{"name":"deadline","type":"uint256","internalType":"uint256"},{"name":"isActive","type":"bool","internalType":"bool"},{"name":"totalContributors","type":"uint256","internalType":"uint256"},{"name":"milestoneCount","type":"uint256","internalType":"uint256"},{"name":"milestoneBased","type":"bool","internalType":"bool"}]}],"stateMutability":"view"},{"type":"function","name":"getProjectCount","inputs":[],"outputs":[{"name":"","type":"uint256","internalType":"uint256"}],"stateMutability":"view"},{"type":"function","name":"getProjectMileStoneVotingStatus","inputs":[{"name":"_projectId","type":"uint256","internalType":"uint256"}],"outputs":[{"name":"","type":"bool","internalType":"bool"}],"stateMutability":"view"},{"type":"function","name":"getProjectMilestoneStage","inputs":[{"name":"_projectId","type":"uint256","internalType":"uint256"}],"outputs":[{"name":"","type":"uint256","internalType":"uint256"}],"stateMutability":"view"},{"type":"function","name":"getProjectNoVotes","inputs":[{"name":"_projectId","type":"uint256","internalType":"uint256"}],"outputs":[{"name":"","type":"uint256","internalType":"uint256"}],"stateMutability":"view"},{"type":"function","name":"getProjectYesVotes","inputs":[{"name":"_projectId","type":"uint256","internalType":"uint256"}],"outputs":[{"name":"","type":"uint256","internalType":"uint256"}],"stateMutability":"view"},{"type":"function","name":"openProjectForMilestoneVotes","inputs":[{"name":"_projectId","type":"uint256","internalType":"uint256"}],"outputs":[],"stateMutability":"nonpayable"},{"type":"function","name":"projectById","inputs":[{"name":"","type":"uint256","internalType":"uint256"}],"outputs":[{"name":"owner","type":"address","internalType":"address"},{"name":"projectId","type":"uint256","internalType":"uint256"},{"name":"name","type":"string","internalType":"string"},{"name":"description","type":"string","internalType":"string"},{"name":"targetAmount","type":"uint256","internalType":"uint256"},{"name":"raisedAmount","type":"uint256","internalType":"uint256"},{"name":"deadline","type":"uint256","internalType":"uint256"},{"name":"isActive","type":"bool","internalType":"bool"},{"name":"totalContributors","type":"uint256","internalType":"uint256"},{"name":"milestoneCount","type":"uint256","internalType":"uint256"},{"name":"milestoneBased","type":"bool","internalType":"bool"},{"name":"projectBalance","type":"uint256","internalType":"uint256"},{"name":"amountWithdrawn","type":"uint256","internalType":"uint256"},{"name":"milestoneStage","type":"uint256","internalType":"uint256"},{"name":"openForMilestoneVotingStage","type":"bool","internalType":"bool"},{"name":"votesForYes","type":"uint256","internalType":"uint256"},{"name":"votesForNo","type":"uint256","internalType":"uint256"},{"name":"timeForMilestoneVotingProcess","type":"uint256","internalType":"uint256"},{"name":"timeForTheVotingProcessToElapsed","type":"uint256","internalType":"uint256"}],"stateMutability":"view"},{"type":"function","name":"takeAVoteForMilestoneStageIncrease","inputs":[{"name":"_projectId","type":"uint256","internalType":"uint256"},{"name":"_vote","type":"bool","internalType":"bool"}],"outputs":[],"stateMutability":"nonpayable"},{"type":"function","name":"withdrawFunds","inputs":[{"name":"_amount","type":"uint256","internalType":"uint256"},{"name":"_projectId","type":"uint256","internalType":"uint256"},{"name":"_to","type":"address","internalType":"address payable"}],"outputs":[],"stateMutability":"nonpayable"},{"type":"event","name":"ProjectCreated","inputs":[{"name":"name","type":"string","indexed":true,"internalType":"string"},{"name":"targetAmount","type":"uint256","indexed":true,"internalType":"uint256"},{"name":"deadline","type":"uint256","indexed":true,"internalType":"uint256"}],"anonymous":false},{"type":"event","name":"ProjectFunded","inputs":[{"name":"name","type":"string","indexed":true,"internalType":"string"},{"name":"amountFunded","type":"uint256","indexed":true,"internalType":"uint256"},{"name":"funder","type":"address","indexed":true,"internalType":"address"}],"anonymous":false},{"type":"event","name":"WithDrawnFromProject","inputs":[{"name":"name","type":"string","indexed":true,"internalType":"string"},{"name":"amountWithdrawn","type":"uint256","indexed":true,"internalType":"uint256"},{"name":"Withdrawer","type":"address","indexed":true,"internalType":"address"}],"anonymous":false},{"type":"error","name":"StageRaise__AddressHasNotFundTheProject","inputs":[]},{"type":"error","name":"StageRaise__AmountToFundMustBeGreaterThanZero","inputs":[]},{"type":"error","name":"StageRaise__AmountToWithdrawMustBeGreaterThanZero","inputs":[]},{"type":"error","name":"StageRaise__CanOnlyBeCalledByProjectOwner","inputs":[]},{"type":"error","name":"StageRaise__CannotWithdrawWhileFundingIsActive","inputs":[]},{"type":"error","name":"StageRaise__DeadlineForFundingHasPassed","inputs":[]},{"type":"error","name":"StageRaise__DeadlineMustBeInFuture","inputs":[]},{"type":"error","name":"StageRaise__ETHTransferFailed","inputs":[]},{"type":"error","name":"StageRaise__FunderHasAlreadyVoted","inputs":[]},{"type":"error","name":"StageRaise__ProjectHasReachedTheFinalMileStoneStage","inputs":[]},{"type":"error","name":"StageRaise__ProjectIsNotOpenForMilestoneVotingProcess","inputs":[]},{"type":"error","name":"StageRaise__ProjectNotActive","inputs":[]},{"type":"error","name":"StageRaise__ProjectNotFound","inputs":[]},{"type":"error","name":"StageRaise__TargetAmountMustBeGreaterThanZero","inputs":[]},{"type":"error","name":"StageRaise__TimeHasNotPassedForTheVotingProcess","inputs":[]},{"type":"error","name":"StageRaise__TotalRaiseCantSurpassTargetRaise","inputs":[]},{"type":"error","name":"StageRaise__VotingPeriodHasPassed","inputs":[]},{"type":"error","name":"StageRaise__VotingProcessFormilestoneMustBeInFuture","inputs":[]},{"type":"error","name":"StageRaise__YouCannotHaveZeroMilestoneForAMileStoneProject","inputs":[]},{"type":"error","name":"StageRaise__YouCannotOpenNonMilestoneProjectForVoting","inputs":[]},{"type":"error","name":"StageRaise__YouCannotOpenProjectVotingWhileFundingIsOngoing","inputs":[]},{"type":"error","name":"StageRaise__YouCannotWithdrawMoreThanTheProjectBalance","inputs":[]},{"type":"error","name":"StageRaise__YouCannotWithdrawMoreThanWithdrawableBalance","inputs":[]}],"bytecode":{"object":"0x60808060405234601557611337908161001a8239f35b5f80fdfe6101406040526004361015610012575f80fd5b5f3560e01c8063034e390514610de257806316c58df314610db65780632e60ee8e14610d015780633085719314610cce578063381826e714610bcb5780633bcff3b014610bae57806349a3518814610a52578063617de1c614610a265780636c563abe146108ad57806373b402d314610881578063744278081461085557806378bb1625146106d15780637f90757d146106a5578063854cdc3f146106745780639ee8a91c146104b9578063ba5338e2146100ff5763ff8c803c146100d5575f80fd5b346100fb5760203660031901126100fb5760206100f3600435611292565b604051908152f35b5f80fd5b346100fb5760e03660031901126100fb5760043567ffffffffffffffff81116100fb576101309036906004016110c8565b60243567ffffffffffffffff81116100fb576101509036906004016110c8565b906044356064359160843560a435908115158092036100fb5760c43591854210156104aa57841561049b578080610493575b610484578215610475576101976001546111bc565b806001555f525f60205260405f209160028301855167ffffffffffffffff81116103c3576101c58254610f71565b601f8111610445575b50806020601f82116001146103e2575f916103d7575b508160011b915f199060031b1c19161790555b336bffffffffffffffffffffffff60a01b845416178355600154600184015560038301885167ffffffffffffffff81116103c3576102358254610f71565b601f8111610388575b506020601f821160011461031c5790806011969594939260209a9b9c5f92610311575b50508160011b915f199060031b1c19161790555b8760048401555f60058401555f600b84015588600684015560078301600160ff198254161790555f600884015560018214610305575b5f600c8401556009830155600a82019060ff801983541691161790550155604051918183925191829101835e81015f81520390207f9521ce2b130fcb65539a94f0c230d875ae9f27ff1d1abf10284c044d6762254c5f80a4005b6001600d8401556102ab565b015190508c80610261565b601f1982169a835f52815f209b5f5b81811061037057509b60019284926011999897969560209d9e9f10610358575b505050811b019055610275565b01515f1960f88460031b161c191690558c808061034b565b838301518e556001909d019c6020938401930161032b565b6103b390835f5260205f20601f840160051c810191602085106103b9575b601f0160051c019061127c565b8a61023e565b90915081906103a6565b634e487b7160e01b5f52604160045260245ffd5b90508701518b6101e4565b5f8481528181209250601f198416905b8a82821061042d5750509083600194939210610415575b5050811b0190556101f7565b8901515f1960f88460031b161c191690558b80610409565b600184956020939584930151815501940192016103f2565b61046f90835f5260205f20601f840160051c810191602085106103b957601f0160051c019061127c565b8a6101ce565b631cb318fb60e11b5f5260045ffd5b63aae2c93760e01b5f5260045ffd5b508115610182565b637c9282a360e11b5f5260045ffd5b63a947d02160e01b5f5260045ffd5b346100fb5760603660031901126100fb576004356024356044356001600160a01b038116908190036100fb575f828152602081905260409020546001600160a01b03163303610665575f828152602081905260409020546001600160a01b03161561065657821561064757815f525f60205282600b60405f200154106106385761054282611292565b831161062957815f525f602052600660405f20015442111561061a575f808085819486835282602052600b604084200161057d83825461126f565b905586835282602052600c604084200161059883825461110e565b90555af13d15610615573d6105ac816110ac565b906105ba6040519283610fc6565b81525f60203d92013e5b15610606575f525f60205233906105e0600260405f20016111f3565b7f3cb2e08616988fccffebad1827f83f2feecfa661f9d71506b64bcc37e38941835f80a4005b630ee97c6d60e01b5f5260045ffd5b6105c4565b634eb82fbd60e01b5f5260045ffd5b63020e779360e61b5f5260045ffd5b6329840ec360e11b5f5260045ffd5b630eb2143f60e21b5f5260045ffd5b63047308cf60e51b5f5260045ffd5b631751c95f60e21b5f5260045ffd5b346100fb5760203660031901126100fb576004355f525f602052602060ff600e60405f200154166040519015158152f35b346100fb5760203660031901126100fb576004355f525f6020526020600b60405f200154604051908152f35b346100fb5760203660031901126100fb575f6101206040516106f281610fa9565b82815260606020820152606060408201528260608201528260808201528260a08201528260c08201528260e08201528261010082015201526004355f525f60205260405f2060018060a01b0381541660048201546005830154600684015460ff60078601541660088601549060098701549260ff600a89015416946040519761077a89610fa9565b885261081f61079e600361079060028d01610fe8565b9b60208c019c8d5201610fe8565b60408a0190815260608a0198895260808a0192835260a08a0193845260c08a01941515855260e08a019586526101008a019687526101208a01971515885261080c6040519b8c9b60208d5260018060a01b0390511660208d01525161014060408d01526101608c0190611088565b90518a8203601f190160608c0152611088565b965160808901525160a08801525160c087015251151560e086015251610100850152516101208401525115156101408301520390f35b346100fb5760203660031901126100fb576004355f525f6020526020601060405f200154604051908152f35b346100fb5760203660031901126100fb576004355f525f6020526020600f60405f200154604051908152f35b60203660031901126100fb576004353415610a17575f818152602081905260409020546001600160a01b03161561065657805f525f60205260ff600760405f2001541615610a0857805f525f60205261090d600560405f2001543461110e565b815f525f602052600460405f200154106109f957805f525f602052600660405f20015442116109e3575f908152602081815260408083203384526013810192839052922054156109ce575b6005820161096734825461110e565b9055600b820161097834825461110e565b905560018060a01b0333165f5260205260405f2061099734825461110e565b905533906109a860023492016111f3565b7f07ccf6370b23192b238f47ccc38832bfe7088cf9c4488bb3e2bd0f430f26e3e95f80a4005b600882016109dc81546111bc565b9055610958565b505f60208190526345d061c760e01b8152600490fd5b63c61266bb60e01b5f5260045ffd5b631b60555960e01b5f5260045ffd5b63a2cc73b160e01b5f5260045ffd5b346100fb5760203660031901126100fb576004355f525f6020526020600d60405f200154604051908152f35b346100fb5760403660031901126100fb576004356024358015158091036100fb575f8281526020818152604080832033845260130190915290205415610b9f575f82815260208181526040808320338452601481019283905292205490939060ff16610b905760ff600e8301541615610b815760128201544211610b7257601592600103610b5257610ae4903361114d565b610af3600f830191825461110e565b90555b018054680100000000000000008110156103c357610b19916001820181556111ca565b81546001600160a01b0360039290921b91821b1916339182901b179091555f90815260209190915260409020805460ff19166001179055005b610b5c903361114d565b610b6b6010830191825461110e565b9055610af6565b63166c887360e11b5f5260045ffd5b633757ed6b60e21b5f5260045ffd5b63019d204d60e21b5f5260045ffd5b63407c718f60e11b5f5260045ffd5b346100fb575f3660031901126100fb576020600154604051908152f35b346100fb5760203660031901126100fb57600435805f525f60205260405f209060128201544210610cbf57600e82019160ff83541615610b8157805f600f819301918254906010810191825410610caa575b5055555f525f60205260405f20905f6014601584019301905b8354811015610c795780610c4c600192866111ca565b838060a01b0391549060031b1c16828060a01b03165f528260205260405f2060ff19815416905501610c36565b828480545f825580610c90575b825460ff19168355005b610ca3915f5260205f209081019061127c565b8180610c86565b600d01610cb781546111bc565b905586610c1d565b63088de85160e11b5f5260045ffd5b346100fb5760403660031901126100fb576004356001600160a01b03811681036100fb576100f36020916024359061114d565b346100fb5760203660031901126100fb576004355f818152602081905260409020546001600160a01b03163303610665575f525f60205260405f2060ff600a8201541615610da757600d81015460098201541115610d98576006810154421115610d8957600e8101600160ff198254161790556012610d8442601184015461110e565b910155005b632742dd1b60e21b5f5260045ffd5b63469c7e2760e11b5f5260045ffd5b638d56a25960e01b5f5260045ffd5b346100fb5760203660031901126100fb576004355f525f6020526020600c60405f200154604051908152f35b346100fb5760203660031901126100fb576004355f90815260208190526040902080546001820154610100526001600160a01b031690610e2460028201610fe8565b61012052610e3460038201610fe8565b91600482015460e0526005820154926006830154600784015460ff1660088501546009860154600a87015460ff1690600b88015492600c89015494600d8a015496600e8b015460ff1698600f8c01549a60108d01549c60118101546080526012015460a05260405160c05260c051526101005160c0516020015260c051604001610260905260c051610260016101205190610ece91611088565b60c051810360c05160600152610ee391611088565b9b60e05160c0516080015260c05160a0015260c05160c00152151560c05160e0015260c051610100015260c0516101200152151560c051610140015260c051610160015260c051610180015260c0516101a00152151560c0516101c0015260c0516101e0015260c051610200015260805160c051610220015260a05160c051610240015260c051900360c051f35b90600182811c92168015610f9f575b6020831014610f8b57565b634e487b7160e01b5f52602260045260245ffd5b91607f1691610f80565b610140810190811067ffffffffffffffff8211176103c357604052565b90601f8019910116810190811067ffffffffffffffff8211176103c357604052565b9060405191825f825492610ffb84610f71565b80845293600181169081156110665750600114611022575b5061102092500383610fc6565b565b90505f9291925260205f20905f915b81831061104a575050906020611020928201015f611013565b6020919350806001915483858901015201910190918492611031565b90506020925061102094915060ff191682840152151560051b8201015f611013565b805180835260209291819084018484015e5f828201840152601f01601f1916010190565b67ffffffffffffffff81116103c357601f01601f191660200190565b81601f820112156100fb578035906110df826110ac565b926110ed6040519485610fc6565b828452602083830101116100fb57815f926020809301838601378301015290565b9190820180921161111b57565b634e487b7160e01b5f52601160045260245ffd5b8115611139570490565b634e487b7160e01b5f52601260045260245ffd5b905f525f60205260405f209060018060a01b038254161561065657601382019060018060a01b0381165f528160205260405f205415610b9f5760018060a01b03165f5260205260405f205460648102908082046064149015171561111b5760056111b99201549061112f565b90565b5f19811461111b5760010190565b80548210156111df575f5260205f2001905f90565b634e487b7160e01b5f52603260045260245ffd5b60405180915f9080549061120682610f71565b91600181169081156112585750600114611223575b505003902090565b9091505f5260205f205f905b82821061124157505081015f8061121b565b80548286015284935060209091019060010161122f565b60ff19168552505080151502820190505f8061121b565b9190820391821161111b57565b818110611287575050565b5f815560010161127c565b5f90815260208190526040902080546001600160a01b0316156112fc5760ff600a82015416156112f557600581015490600d8101549182810292818404149015171561111b57600c6112ec6111b99360098401549061112f565b9101549061126f565b600b015490565b505f9056fea264697066735822122043ce93a5d0adb6737d922631658451f0f38483e29d078bebb8f765057818ca1764736f6c634300081c0033","linkReferences":{}},"methodIdentifiers":{"calculateFunderVotingPower(address,uint256)":"30857193","createProject(string,string,uint256,uint256,uint256,bool,uint256)":"ba5338e2","finalizeVotingProcess(uint256)":"381826e7","fundProject(uint256)":"6c563abe","getAmountWithdrawableForAProject(uint256)":"ff8c803c","getProjectAmountWithdrawn(uint256)":"16c58df3","getProjectBalance(uint256)":"7f90757d","getProjectBasicInfo(uint256)":"78bb1625","getProjectCount()":"3bcff3b0","getProjectMileStoneVotingStatus(uint256)":"854cdc3f","getProjectMilestoneStage(uint256)":"617de1c6","getProjectNoVotes(uint256)":"74427808","getProjectYesVotes(uint256)":"73b402d3","openProjectForMilestoneVotes(uint256)":"2e60ee8e","projectById(uint256)":"034e3905","takeAVoteForMilestoneStageIncrease(uint256,bool)":"49a35188","withdrawFunds(uint256,uint256,address)":"9ee8a91c"},"id":19}