{"abi":[{"type":"function","name":"createProject","inputs":[{"name":"_name","type":"string","internalType":"string"},{"name":"_description","type":"string","internalType":"string"},{"name":"_targetAmount","type":"uint256","internalType":"uint256"},{"name":"_deadline","type":"uint256","internalType":"uint256"},{"name":"_isActive","type":"bool","internalType":"bool"},{"name":"_milestoneCount","type":"uint256","internalType":"uint256"},{"name":"_milestoneBased","type":"bool","internalType":"bool"}],"outputs":[],"stateMutability":"nonpayable"},{"type":"function","name":"fundProject","inputs":[{"name":"_projectId","type":"uint256","internalType":"uint256"}],"outputs":[],"stateMutability":"payable"},{"type":"function","name":"getProjectBasicInfo","inputs":[{"name":"_projectId","type":"uint256","internalType":"uint256"}],"outputs":[{"name":"owner","type":"address","internalType":"address"},{"name":"name","type":"string","internalType":"string"},{"name":"decription","type":"string","internalType":"string"},{"name":"targetAmount","type":"uint256","internalType":"uint256"},{"name":"raisedAmount","type":"uint256","internalType":"uint256"},{"name":"deadline","type":"uint256","internalType":"uint256"},{"name":"isActive","type":"bool","internalType":"bool"},{"name":"totalContributors","type":"uint256","internalType":"uint256"},{"name":"milestoneCount","type":"uint256","internalType":"uint256"},{"name":"milestoneBased","type":"bool","internalType":"bool"}],"stateMutability":"view"},{"type":"function","name":"projectById","inputs":[{"name":"","type":"uint256","internalType":"uint256"}],"outputs":[{"name":"owner","type":"address","internalType":"address"},{"name":"projectId","type":"uint256","internalType":"uint256"},{"name":"name","type":"string","internalType":"string"},{"name":"description","type":"string","internalType":"string"},{"name":"targetAmount","type":"uint256","internalType":"uint256"},{"name":"raisedAmount","type":"uint256","internalType":"uint256"},{"name":"deadline","type":"uint256","internalType":"uint256"},{"name":"isActive","type":"bool","internalType":"bool"},{"name":"totalContributors","type":"uint256","internalType":"uint256"},{"name":"milestoneCount","type":"uint256","internalType":"uint256"},{"name":"milestoneBased","type":"bool","internalType":"bool"}],"stateMutability":"view"},{"type":"function","name":"s_projectCount","inputs":[],"outputs":[{"name":"","type":"uint256","internalType":"uint256"}],"stateMutability":"view"},{"type":"function","name":"s_projects","inputs":[{"name":"","type":"uint256","internalType":"uint256"}],"outputs":[{"name":"owner","type":"address","internalType":"address"},{"name":"projectId","type":"uint256","internalType":"uint256"},{"name":"name","type":"string","internalType":"string"},{"name":"description","type":"string","internalType":"string"},{"name":"targetAmount","type":"uint256","internalType":"uint256"},{"name":"raisedAmount","type":"uint256","internalType":"uint256"},{"name":"deadline","type":"uint256","internalType":"uint256"},{"name":"isActive","type":"bool","internalType":"bool"},{"name":"totalContributors","type":"uint256","internalType":"uint256"},{"name":"milestoneCount","type":"uint256","internalType":"uint256"},{"name":"milestoneBased","type":"bool","internalType":"bool"}],"stateMutability":"view"},{"type":"event","name":"ProjectCreated","inputs":[{"name":"name","type":"string","indexed":true,"internalType":"string"},{"name":"targetAmount","type":"uint256","indexed":true,"internalType":"uint256"},{"name":"deadline","type":"uint256","indexed":false,"internalType":"uint256"}],"anonymous":false},{"type":"event","name":"ProjectFunded","inputs":[{"name":"name","type":"string","indexed":true,"internalType":"string"},{"name":"AmoutFunded","type":"uint256","indexed":true,"internalType":"uint256"},{"name":"Funder","type":"address","indexed":true,"internalType":"address"}],"anonymous":false},{"type":"error","name":"StageRaise__AmountToFundMustBeGreaterThanZero","inputs":[]},{"type":"error","name":"StageRaise__DeadlineMustBeInFuture","inputs":[]},{"type":"error","name":"StageRaise__ProjectNotActive","inputs":[]},{"type":"error","name":"StageRaise__ProjectNotFound","inputs":[]},{"type":"error","name":"StageRaise__TargetAmountMustBeGreaterThanZero","inputs":[]},{"type":"error","name":"StageRaise__TotalRaiseCantSurpassTargetRaise","inputs":[]}],"bytecode":{"object":"0x6080604052348015600e575f5ffd5b5061133d8061001c5f395ff3fe608060405260043610610054575f3560e01c8063034e3905146100585780630ff013521461009e5780635f7b074b146100c65780636c563abe1461010c57806378bb162514610128578063c46b86d61461016d575b5f5ffd5b348015610063575f5ffd5b5061007e60048036038101906100799190610aee565b610197565b6040516100959b9a99989796959493929190610bf1565b60405180910390f35b3480156100a9575f5ffd5b506100c460048036038101906100bf9190610dfe565b610330565b005b3480156100d1575f5ffd5b506100ec60048036038101906100e79190610aee565b6104b5565b6040516101039b9a99989796959493929190610bf1565b60405180910390f35b61012660048036038101906101219190610aee565b61065c565b005b348015610133575f5ffd5b5061014e60048036038101906101499190610aee565b6108e9565b6040516101649a99989796959493929190610ed3565b60405180910390f35b348015610178575f5ffd5b50610181610aa4565b60405161018e9190610f7b565b60405180910390f35b6001602052805f5260405f205f91509050805f015f9054906101000a900473ffffffffffffffffffffffffffffffffffffffff16908060010154908060020180546101e190610fc1565b80601f016020809104026020016040519081016040528092919081815260200182805461020d90610fc1565b80156102585780601f1061022f57610100808354040283529160200191610258565b820191905f5260205f20905b81548152906001019060200180831161023b57829003601f168201915b50505050509080600301805461026d90610fc1565b80601f016020809104026020016040519081016040528092919081815260200182805461029990610fc1565b80156102e45780601f106102bb576101008083540402835291602001916102e4565b820191905f5260205f20905b8154815290600101906020018083116102c757829003601f168201915b505050505090806004015490806005015490806006015490806007015f9054906101000a900460ff169080600801549080600901549080600a015f9054906101000a900460ff1690508b565b834210610369576040517fa947d02100000000000000000000000000000000000000000000000000000000815260040160405180910390fd5b5f85116103a2576040517ff925054600000000000000000000000000000000000000000000000000000000815260040160405180910390fd5b60025f8154809291906103b49061101e565b91905055505f60015f60025481526020019081526020015f209050878160020190816103e09190611205565b5033815f015f6101000a81548173ffffffffffffffffffffffffffffffffffffffff021916908373ffffffffffffffffffffffffffffffffffffffff16021790555060025481600101819055508681600301908161043e9190611205565b508581600401819055505f816005018190555084816006018190555083816007015f6101000a81548160ff0219169083151502179055505f81600801819055505f81600801819055508281600901819055508181600a015f6101000a81548160ff0219169083151502179055505050505050505050565b5f81815481106104c3575f80fd5b905f5260205f2090600d02015f91509050805f015f9054906101000a900473ffffffffffffffffffffffffffffffffffffffff169080600101549080600201805461050d90610fc1565b80601f016020809104026020016040519081016040528092919081815260200182805461053990610fc1565b80156105845780601f1061055b57610100808354040283529160200191610584565b820191905f5260205f20905b81548152906001019060200180831161056757829003601f168201915b50505050509080600301805461059990610fc1565b80601f01602080910402602001604051908101604052809291908181526020018280546105c590610fc1565b80156106105780601f106105e757610100808354040283529160200191610610565b820191905f5260205f20905b8154815290600101906020018083116105f357829003601f168201915b505050505090806004015490806005015490806006015490806007015f9054906101000a900460ff169080600801549080600901549080600a015f9054906101000a900460ff1690508b565b5f3411610695576040517fa2cc73b100000000000000000000000000000000000000000000000000000000815260040160405180910390fd5b5f73ffffffffffffffffffffffffffffffffffffffff1660015f8381526020019081526020015f205f015f9054906101000a900473ffffffffffffffffffffffffffffffffffffffff1673ffffffffffffffffffffffffffffffffffffffff160361072c576040517f8e6119e000000000000000000000000000000000000000000000000000000000815260040160405180910390fd5b60015f8281526020019081526020015f206007015f9054906101000a900460ff16610783576040517f1b60555900000000000000000000000000000000000000000000000000000000815260040160405180910390fd5b60015f8281526020019081526020015f206004015460015f8381526020019081526020015f2060050154346107b891906112d4565b11156107f0576040517fc61266bb00000000000000000000000000000000000000000000000000000000815260040160405180910390fd5b5f60015f8381526020019081526020015f20905034816005015f82825461081791906112d4565b9250508190555080600b0133908060018154018082558091505060019003905f5260205f20015f9091909190916101000a81548173ffffffffffffffffffffffffffffffffffffffff021916908373ffffffffffffffffffffffffffffffffffffffff16021790555080600b018054905081600801819055503481600c015f3373ffffffffffffffffffffffffffffffffffffffff1673ffffffffffffffffffffffffffffffffffffffff1681526020019081526020015f205f8282546108de91906112d4565b925050819055505050565b5f6060805f5f5f5f5f5f5f5f60015f8d81526020019081526020015f209050805f015f9054906101000a900473ffffffffffffffffffffffffffffffffffffffff168160020182600301836004015484600501548560060154866007015f9054906101000a900460ff168760080154886009015489600a015f9054906101000a900460ff1688805461097a90610fc1565b80601f01602080910402602001604051908101604052809291908181526020018280546109a690610fc1565b80156109f15780601f106109c8576101008083540402835291602001916109f1565b820191905f5260205f20905b8154815290600101906020018083116109d457829003601f168201915b50505050509850878054610a0490610fc1565b80601f0160208091040260200160405190810160405280929190818152602001828054610a3090610fc1565b8015610a7b5780601f10610a5257610100808354040283529160200191610a7b565b820191905f5260205f20905b815481529060010190602001808311610a5e57829003601f168201915b505050505097509a509a509a509a509a509a509a509a509a509a50509193959799509193959799565b60025481565b5f604051905090565b5f5ffd5b5f5ffd5b5f819050919050565b610acd81610abb565b8114610ad7575f5ffd5b50565b5f81359050610ae881610ac4565b92915050565b5f60208284031215610b0357610b02610ab3565b5b5f610b1084828501610ada565b91505092915050565b5f73ffffffffffffffffffffffffffffffffffffffff82169050919050565b5f610b4282610b19565b9050919050565b610b5281610b38565b82525050565b610b6181610abb565b82525050565b5f81519050919050565b5f82825260208201905092915050565b8281835e5f83830152505050565b5f601f19601f8301169050919050565b5f610ba982610b67565b610bb38185610b71565b9350610bc3818560208601610b81565b610bcc81610b8f565b840191505092915050565b5f8115159050919050565b610beb81610bd7565b82525050565b5f61016082019050610c055f83018e610b49565b610c12602083018d610b58565b8181036040830152610c24818c610b9f565b90508181036060830152610c38818b610b9f565b9050610c47608083018a610b58565b610c5460a0830189610b58565b610c6160c0830188610b58565b610c6e60e0830187610be2565b610c7c610100830186610b58565b610c8a610120830185610b58565b610c98610140830184610be2565b9c9b505050505050505050505050565b5f5ffd5b5f5ffd5b7f4e487b71000000000000000000000000000000000000000000000000000000005f52604160045260245ffd5b610ce682610b8f565b810181811067ffffffffffffffff82111715610d0557610d04610cb0565b5b80604052505050565b5f610d17610aaa565b9050610d238282610cdd565b919050565b5f67ffffffffffffffff821115610d4257610d41610cb0565b5b610d4b82610b8f565b9050602081019050919050565b828183375f83830152505050565b5f610d78610d7384610d28565b610d0e565b905082815260208101848484011115610d9457610d93610cac565b5b610d9f848285610d58565b509392505050565b5f82601f830112610dbb57610dba610ca8565b5b8135610dcb848260208601610d66565b91505092915050565b610ddd81610bd7565b8114610de7575f5ffd5b50565b5f81359050610df881610dd4565b92915050565b5f5f5f5f5f5f5f60e0888a031215610e1957610e18610ab3565b5b5f88013567ffffffffffffffff811115610e3657610e35610ab7565b5b610e428a828b01610da7565b975050602088013567ffffffffffffffff811115610e6357610e62610ab7565b5b610e6f8a828b01610da7565b9650506040610e808a828b01610ada565b9550506060610e918a828b01610ada565b9450506080610ea28a828b01610dea565b93505060a0610eb38a828b01610ada565b92505060c0610ec48a828b01610dea565b91505092959891949750929550565b5f61014082019050610ee75f83018d610b49565b8181036020830152610ef9818c610b9f565b90508181036040830152610f0d818b610b9f565b9050610f1c606083018a610b58565b610f296080830189610b58565b610f3660a0830188610b58565b610f4360c0830187610be2565b610f5060e0830186610b58565b610f5e610100830185610b58565b610f6c610120830184610be2565b9b9a5050505050505050505050565b5f602082019050610f8e5f830184610b58565b92915050565b7f4e487b71000000000000000000000000000000000000000000000000000000005f52602260045260245ffd5b5f6002820490506001821680610fd857607f821691505b602082108103610feb57610fea610f94565b5b50919050565b7f4e487b71000000000000000000000000000000000000000000000000000000005f52601160045260245ffd5b5f61102882610abb565b91507fffffffffffffffffffffffffffffffffffffffffffffffffffffffffffffffff820361105a57611059610ff1565b5b600182019050919050565b5f819050815f5260205f209050919050565b5f6020601f8301049050919050565b5f82821b905092915050565b5f600883026110c17fffffffffffffffffffffffffffffffffffffffffffffffffffffffffffffffff82611086565b6110cb8683611086565b95508019841693508086168417925050509392505050565b5f819050919050565b5f6111066111016110fc84610abb565b6110e3565b610abb565b9050919050565b5f819050919050565b61111f836110ec565b61113361112b8261110d565b848454611092565b825550505050565b5f5f905090565b61114a61113b565b611155818484611116565b505050565b5b818110156111785761116d5f82611142565b60018101905061115b565b5050565b601f8211156111bd5761118e81611065565b61119784611077565b810160208510156111a6578190505b6111ba6111b285611077565b83018261115a565b50505b505050565b5f82821c905092915050565b5f6111dd5f19846008026111c2565b1980831691505092915050565b5f6111f583836111ce565b9150826002028217905092915050565b61120e82610b67565b67ffffffffffffffff81111561122757611226610cb0565b5b6112318254610fc1565b61123c82828561117c565b5f60209050601f83116001811461126d575f841561125b578287015190505b61126585826111ea565b8655506112cc565b601f19841661127b86611065565b5f5b828110156112a25784890151825560018201915060208501945060208101905061127d565b868310156112bf57848901516112bb601f8916826111ce565b8355505b6001600288020188555050505b505050505050565b5f6112de82610abb565b91506112e983610abb565b925082820190508082111561130157611300610ff1565b5b9291505056fea2646970667358221220e9d3d27244115870b580234dded68cb673010ba436a6bc6f79b1d9e8db91e38a64736f6c634300081c0033","linkReferences":{}},"methodIdentifiers":{"createProject(string,string,uint256,uint256,bool,uint256,bool)":"0ff01352","fundProject(uint256)":"6c563abe","getProjectBasicInfo(uint256)":"78bb1625","projectById(uint256)":"034e3905","s_projectCount()":"c46b86d6","s_projects(uint256)":"5f7b074b"},"id":19}