{"abi":[{"type":"function","name":"createProject","inputs":[{"name":"_name","type":"string","internalType":"string"},{"name":"_description","type":"string","internalType":"string"},{"name":"_targetAmount","type":"uint256","internalType":"uint256"},{"name":"_deadline","type":"uint256","internalType":"uint256"},{"name":"_isActive","type":"bool","internalType":"bool"},{"name":"_milestoneCount","type":"uint256","internalType":"uint256"},{"name":"_milestoneBased","type":"bool","internalType":"bool"}],"outputs":[],"stateMutability":"nonpayable"},{"type":"function","name":"fundProject","inputs":[{"name":"_projectId","type":"uint256","internalType":"uint256"}],"outputs":[],"stateMutability":"payable"},{"type":"function","name":"getProjectBasicInfo","inputs":[{"name":"_projectId","type":"uint256","internalType":"uint256"}],"outputs":[{"name":"owner","type":"address","internalType":"address"},{"name":"name","type":"string","internalType":"string"},{"name":"decription","type":"string","internalType":"string"},{"name":"targetAmount","type":"uint256","internalType":"uint256"},{"name":"raisedAmount","type":"uint256","internalType":"uint256"},{"name":"deadline","type":"uint256","internalType":"uint256"},{"name":"isActive","type":"bool","internalType":"bool"},{"name":"totalContributors","type":"uint256","internalType":"uint256"},{"name":"milestoneCount","type":"uint256","internalType":"uint256"},{"name":"milestoneBased","type":"bool","internalType":"bool"}],"stateMutability":"view"},{"type":"function","name":"getProjectCount","inputs":[],"outputs":[{"name":"","type":"uint256","internalType":"uint256"}],"stateMutability":"view"},{"type":"function","name":"projectById","inputs":[{"name":"","type":"uint256","internalType":"uint256"}],"outputs":[{"name":"owner","type":"address","internalType":"address"},{"name":"projectId","type":"uint256","internalType":"uint256"},{"name":"name","type":"string","internalType":"string"},{"name":"description","type":"string","internalType":"string"},{"name":"targetAmount","type":"uint256","internalType":"uint256"},{"name":"raisedAmount","type":"uint256","internalType":"uint256"},{"name":"deadline","type":"uint256","internalType":"uint256"},{"name":"isActive","type":"bool","internalType":"bool"},{"name":"totalContributors","type":"uint256","internalType":"uint256"},{"name":"milestoneCount","type":"uint256","internalType":"uint256"},{"name":"milestoneBased","type":"bool","internalType":"bool"}],"stateMutability":"view"},{"type":"function","name":"s_projects","inputs":[{"name":"","type":"uint256","internalType":"uint256"}],"outputs":[{"name":"owner","type":"address","internalType":"address"},{"name":"projectId","type":"uint256","internalType":"uint256"},{"name":"name","type":"string","internalType":"string"},{"name":"description","type":"string","internalType":"string"},{"name":"targetAmount","type":"uint256","internalType":"uint256"},{"name":"raisedAmount","type":"uint256","internalType":"uint256"},{"name":"deadline","type":"uint256","internalType":"uint256"},{"name":"isActive","type":"bool","internalType":"bool"},{"name":"totalContributors","type":"uint256","internalType":"uint256"},{"name":"milestoneCount","type":"uint256","internalType":"uint256"},{"name":"milestoneBased","type":"bool","internalType":"bool"}],"stateMutability":"view"},{"type":"event","name":"ProjectCreated","inputs":[{"name":"name","type":"string","indexed":true,"internalType":"string"},{"name":"targetAmount","type":"uint256","indexed":true,"internalType":"uint256"},{"name":"deadline","type":"uint256","indexed":false,"internalType":"uint256"}],"anonymous":false},{"type":"event","name":"ProjectFunded","inputs":[{"name":"name","type":"string","indexed":true,"internalType":"string"},{"name":"AmoutFunded","type":"uint256","indexed":true,"internalType":"uint256"},{"name":"Funder","type":"address","indexed":true,"internalType":"address"}],"anonymous":false},{"type":"error","name":"StageRaise__AmountToFundMustBeGreaterThanZero","inputs":[]},{"type":"error","name":"StageRaise__DeadlineMustBeInFuture","inputs":[]},{"type":"error","name":"StageRaise__ProjectNotActive","inputs":[]},{"type":"error","name":"StageRaise__ProjectNotFound","inputs":[]},{"type":"error","name":"StageRaise__TargetAmountMustBeGreaterThanZero","inputs":[]},{"type":"error","name":"StageRaise__TotalRaiseCantSurpassTargetRaise","inputs":[]}],"bytecode":{"object":"0x6080604052348015600e575f5ffd5b506113408061001c5f395ff3fe608060405260043610610054575f3560e01c8063034e3905146100585780630ff013521461009e5780633bcff3b0146100c65780635f7b074b146100f05780636c563abe1461013657806378bb162514610152575b5f5ffd5b348015610063575f5ffd5b5061007e60048036038101906100799190610af1565b610197565b6040516100959b9a99989796959493929190610bf4565b60405180910390f35b3480156100a9575f5ffd5b506100c460048036038101906100bf9190610e01565b610330565b005b3480156100d1575f5ffd5b506100da6104b5565b6040516100e79190610ed6565b60405180910390f35b3480156100fb575f5ffd5b5061011660048036038101906101119190610af1565b6104be565b60405161012d9b9a99989796959493929190610bf4565b60405180910390f35b610150600480360381019061014b9190610af1565b610665565b005b34801561015d575f5ffd5b5061017860048036038101906101739190610af1565b6108f2565b60405161018e9a99989796959493929190610eef565b60405180910390f35b6001602052805f5260405f205f91509050805f015f9054906101000a900473ffffffffffffffffffffffffffffffffffffffff16908060010154908060020180546101e190610fc4565b80601f016020809104026020016040519081016040528092919081815260200182805461020d90610fc4565b80156102585780601f1061022f57610100808354040283529160200191610258565b820191905f5260205f20905b81548152906001019060200180831161023b57829003601f168201915b50505050509080600301805461026d90610fc4565b80601f016020809104026020016040519081016040528092919081815260200182805461029990610fc4565b80156102e45780601f106102bb576101008083540402835291602001916102e4565b820191905f5260205f20905b8154815290600101906020018083116102c757829003601f168201915b505050505090806004015490806005015490806006015490806007015f9054906101000a900460ff169080600801549080600901549080600a015f9054906101000a900460ff1690508b565b834210610369576040517fa947d02100000000000000000000000000000000000000000000000000000000815260040160405180910390fd5b5f85116103a2576040517ff925054600000000000000000000000000000000000000000000000000000000815260040160405180910390fd5b60025f8154809291906103b490611021565b91905055505f60015f60025481526020019081526020015f209050878160020190816103e09190611208565b5033815f015f6101000a81548173ffffffffffffffffffffffffffffffffffffffff021916908373ffffffffffffffffffffffffffffffffffffffff16021790555060025481600101819055508681600301908161043e9190611208565b508581600401819055505f816005018190555084816006018190555083816007015f6101000a81548160ff0219169083151502179055505f81600801819055505f81600801819055508281600901819055508181600a015f6101000a81548160ff0219169083151502179055505050505050505050565b5f600254905090565b5f81815481106104cc575f80fd5b905f5260205f2090600d02015f91509050805f015f9054906101000a900473ffffffffffffffffffffffffffffffffffffffff169080600101549080600201805461051690610fc4565b80601f016020809104026020016040519081016040528092919081815260200182805461054290610fc4565b801561058d5780601f106105645761010080835404028352916020019161058d565b820191905f5260205f20905b81548152906001019060200180831161057057829003601f168201915b5050505050908060030180546105a290610fc4565b80601f01602080910402602001604051908101604052809291908181526020018280546105ce90610fc4565b80156106195780601f106105f057610100808354040283529160200191610619565b820191905f5260205f20905b8154815290600101906020018083116105fc57829003601f168201915b505050505090806004015490806005015490806006015490806007015f9054906101000a900460ff169080600801549080600901549080600a015f9054906101000a900460ff1690508b565b5f341161069e576040517fa2cc73b100000000000000000000000000000000000000000000000000000000815260040160405180910390fd5b5f73ffffffffffffffffffffffffffffffffffffffff1660015f8381526020019081526020015f205f015f9054906101000a900473ffffffffffffffffffffffffffffffffffffffff1673ffffffffffffffffffffffffffffffffffffffff1603610735576040517f8e6119e000000000000000000000000000000000000000000000000000000000815260040160405180910390fd5b60015f8281526020019081526020015f206007015f9054906101000a900460ff1661078c576040517f1b60555900000000000000000000000000000000000000000000000000000000815260040160405180910390fd5b60015f8281526020019081526020015f206004015460015f8381526020019081526020015f2060050154346107c191906112d7565b11156107f9576040517fc61266bb00000000000000000000000000000000000000000000000000000000815260040160405180910390fd5b5f60015f8381526020019081526020015f20905034816005015f82825461082091906112d7565b9250508190555080600b0133908060018154018082558091505060019003905f5260205f20015f9091909190916101000a81548173ffffffffffffffffffffffffffffffffffffffff021916908373ffffffffffffffffffffffffffffffffffffffff16021790555080600b018054905081600801819055503481600c015f3373ffffffffffffffffffffffffffffffffffffffff1673ffffffffffffffffffffffffffffffffffffffff1681526020019081526020015f205f8282546108e791906112d7565b925050819055505050565b5f6060805f5f5f5f5f5f5f5f60015f8d81526020019081526020015f209050805f015f9054906101000a900473ffffffffffffffffffffffffffffffffffffffff168160020182600301836004015484600501548560060154866007015f9054906101000a900460ff168760080154886009015489600a015f9054906101000a900460ff1688805461098390610fc4565b80601f01602080910402602001604051908101604052809291908181526020018280546109af90610fc4565b80156109fa5780601f106109d1576101008083540402835291602001916109fa565b820191905f5260205f20905b8154815290600101906020018083116109dd57829003601f168201915b50505050509850878054610a0d90610fc4565b80601f0160208091040260200160405190810160405280929190818152602001828054610a3990610fc4565b8015610a845780601f10610a5b57610100808354040283529160200191610a84565b820191905f5260205f20905b815481529060010190602001808311610a6757829003601f168201915b505050505097509a509a509a509a509a509a509a509a509a509a50509193959799509193959799565b5f604051905090565b5f5ffd5b5f5ffd5b5f819050919050565b610ad081610abe565b8114610ada575f5ffd5b50565b5f81359050610aeb81610ac7565b92915050565b5f60208284031215610b0657610b05610ab6565b5b5f610b1384828501610add565b91505092915050565b5f73ffffffffffffffffffffffffffffffffffffffff82169050919050565b5f610b4582610b1c565b9050919050565b610b5581610b3b565b82525050565b610b6481610abe565b82525050565b5f81519050919050565b5f82825260208201905092915050565b8281835e5f83830152505050565b5f601f19601f8301169050919050565b5f610bac82610b6a565b610bb68185610b74565b9350610bc6818560208601610b84565b610bcf81610b92565b840191505092915050565b5f8115159050919050565b610bee81610bda565b82525050565b5f61016082019050610c085f83018e610b4c565b610c15602083018d610b5b565b8181036040830152610c27818c610ba2565b90508181036060830152610c3b818b610ba2565b9050610c4a608083018a610b5b565b610c5760a0830189610b5b565b610c6460c0830188610b5b565b610c7160e0830187610be5565b610c7f610100830186610b5b565b610c8d610120830185610b5b565b610c9b610140830184610be5565b9c9b505050505050505050505050565b5f5ffd5b5f5ffd5b7f4e487b71000000000000000000000000000000000000000000000000000000005f52604160045260245ffd5b610ce982610b92565b810181811067ffffffffffffffff82111715610d0857610d07610cb3565b5b80604052505050565b5f610d1a610aad565b9050610d268282610ce0565b919050565b5f67ffffffffffffffff821115610d4557610d44610cb3565b5b610d4e82610b92565b9050602081019050919050565b828183375f83830152505050565b5f610d7b610d7684610d2b565b610d11565b905082815260208101848484011115610d9757610d96610caf565b5b610da2848285610d5b565b509392505050565b5f82601f830112610dbe57610dbd610cab565b5b8135610dce848260208601610d69565b91505092915050565b610de081610bda565b8114610dea575f5ffd5b50565b5f81359050610dfb81610dd7565b92915050565b5f5f5f5f5f5f5f60e0888a031215610e1c57610e1b610ab6565b5b5f88013567ffffffffffffffff811115610e3957610e38610aba565b5b610e458a828b01610daa565b975050602088013567ffffffffffffffff811115610e6657610e65610aba565b5b610e728a828b01610daa565b9650506040610e838a828b01610add565b9550506060610e948a828b01610add565b9450506080610ea58a828b01610ded565b93505060a0610eb68a828b01610add565b92505060c0610ec78a828b01610ded565b91505092959891949750929550565b5f602082019050610ee95f830184610b5b565b92915050565b5f61014082019050610f035f83018d610b4c565b8181036020830152610f15818c610ba2565b90508181036040830152610f29818b610ba2565b9050610f38606083018a610b5b565b610f456080830189610b5b565b610f5260a0830188610b5b565b610f5f60c0830187610be5565b610f6c60e0830186610b5b565b610f7a610100830185610b5b565b610f88610120830184610be5565b9b9a5050505050505050505050565b7f4e487b71000000000000000000000000000000000000000000000000000000005f52602260045260245ffd5b5f6002820490506001821680610fdb57607f821691505b602082108103610fee57610fed610f97565b5b50919050565b7f4e487b71000000000000000000000000000000000000000000000000000000005f52601160045260245ffd5b5f61102b82610abe565b91507fffffffffffffffffffffffffffffffffffffffffffffffffffffffffffffffff820361105d5761105c610ff4565b5b600182019050919050565b5f819050815f5260205f209050919050565b5f6020601f8301049050919050565b5f82821b905092915050565b5f600883026110c47fffffffffffffffffffffffffffffffffffffffffffffffffffffffffffffffff82611089565b6110ce8683611089565b95508019841693508086168417925050509392505050565b5f819050919050565b5f6111096111046110ff84610abe565b6110e6565b610abe565b9050919050565b5f819050919050565b611122836110ef565b61113661112e82611110565b848454611095565b825550505050565b5f5f905090565b61114d61113e565b611158818484611119565b505050565b5b8181101561117b576111705f82611145565b60018101905061115e565b5050565b601f8211156111c05761119181611068565b61119a8461107a565b810160208510156111a9578190505b6111bd6111b58561107a565b83018261115d565b50505b505050565b5f82821c905092915050565b5f6111e05f19846008026111c5565b1980831691505092915050565b5f6111f883836111d1565b9150826002028217905092915050565b61121182610b6a565b67ffffffffffffffff81111561122a57611229610cb3565b5b6112348254610fc4565b61123f82828561117f565b5f60209050601f831160018114611270575f841561125e578287015190505b61126885826111ed565b8655506112cf565b601f19841661127e86611068565b5f5b828110156112a557848901518255600182019150602085019450602081019050611280565b868310156112c257848901516112be601f8916826111d1565b8355505b6001600288020188555050505b505050505050565b5f6112e182610abe565b91506112ec83610abe565b925082820190508082111561130457611303610ff4565b5b9291505056fea264697066735822122013b524d81f279e56487153e0f35083ac07b52442d7af3a2af156e1c1c74474a364736f6c634300081c0033","linkReferences":{}},"methodIdentifiers":{"createProject(string,string,uint256,uint256,bool,uint256,bool)":"0ff01352","fundProject(uint256)":"6c563abe","getProjectBasicInfo(uint256)":"78bb1625","getProjectCount()":"3bcff3b0","projectById(uint256)":"034e3905","s_projects(uint256)":"5f7b074b"},"id":19}