{"abi":[{"type":"function","name":"calculateFunderVotingPower","inputs":[{"name":"_funder","type":"address","internalType":"address"},{"name":"_projectId","type":"uint256","internalType":"uint256"}],"outputs":[{"name":"votingPower","type":"uint256","internalType":"uint256"}],"stateMutability":"view"},{"type":"function","name":"createProject","inputs":[{"name":"_name","type":"string","internalType":"string"},{"name":"_description","type":"string","internalType":"string"},{"name":"_targetAmount","type":"uint256","internalType":"uint256"},{"name":"_deadline","type":"uint256","internalType":"uint256"},{"name":"_milestoneCount","type":"uint256","internalType":"uint256"},{"name":"_milestoneBased","type":"bool","internalType":"bool"},{"name":"_timeForMileStoneVotingProcess","type":"uint256","internalType":"uint256"}],"outputs":[],"stateMutability":"nonpayable"},{"type":"function","name":"finalizeVotingProcess","inputs":[{"name":"_projectId","type":"uint256","internalType":"uint256"}],"outputs":[],"stateMutability":"nonpayable"},{"type":"function","name":"fundProject","inputs":[{"name":"_projectId","type":"uint256","internalType":"uint256"}],"outputs":[],"stateMutability":"payable"},{"type":"function","name":"getAmountWithdrawableForAProject","inputs":[{"name":"_projectId","type":"uint256","internalType":"uint256"}],"outputs":[{"name":"","type":"uint256","internalType":"uint256"}],"stateMutability":"view"},{"type":"function","name":"getProjectAmountWithdrawn","inputs":[{"name":"_projectId","type":"uint256","internalType":"uint256"}],"outputs":[{"name":"","type":"uint256","internalType":"uint256"}],"stateMutability":"view"},{"type":"function","name":"getProjectBalance","inputs":[{"name":"_projectId","type":"uint256","internalType":"uint256"}],"outputs":[{"name":"","type":"uint256","internalType":"uint256"}],"stateMutability":"view"},{"type":"function","name":"getProjectBasicInfo","inputs":[{"name":"_projectId","type":"uint256","internalType":"uint256"}],"outputs":[{"name":"","type":"tuple","internalType":"struct StageRaise.ProjectInfo","components":[{"name":"owner","type":"address","internalType":"address"},{"name":"name","type":"string","internalType":"string"},{"name":"description","type":"string","internalType":"string"},{"name":"targetAmount","type":"uint256","internalType":"uint256"},{"name":"raisedAmount","type":"uint256","internalType":"uint256"},{"name":"deadline","type":"uint256","internalType":"uint256"},{"name":"isActive","type":"bool","internalType":"bool"},{"name":"totalContributors","type":"uint256","internalType":"uint256"},{"name":"milestoneCount","type":"uint256","internalType":"uint256"},{"name":"milestoneBased","type":"bool","internalType":"bool"}]}],"stateMutability":"view"},{"type":"function","name":"getProjectCount","inputs":[],"outputs":[{"name":"","type":"uint256","internalType":"uint256"}],"stateMutability":"view"},{"type":"function","name":"getProjectMileStoneVotingStatus","inputs":[{"name":"_projectId","type":"uint256","internalType":"uint256"}],"outputs":[{"name":"","type":"bool","internalType":"bool"}],"stateMutability":"view"},{"type":"function","name":"getProjectMilestoneStage","inputs":[{"name":"_projectId","type":"uint256","internalType":"uint256"}],"outputs":[{"name":"","type":"uint256","internalType":"uint256"}],"stateMutability":"view"},{"type":"function","name":"getProjectYesVotes","inputs":[{"name":"_projectId","type":"uint256","internalType":"uint256"}],"outputs":[{"name":"","type":"uint256","internalType":"uint256"}],"stateMutability":"view"},{"type":"function","name":"openProjectForMilestoneVotes","inputs":[{"name":"_projectId","type":"uint256","internalType":"uint256"}],"outputs":[],"stateMutability":"nonpayable"},{"type":"function","name":"projectById","inputs":[{"name":"","type":"uint256","internalType":"uint256"}],"outputs":[{"name":"owner","type":"address","internalType":"address"},{"name":"projectId","type":"uint256","internalType":"uint256"},{"name":"name","type":"string","internalType":"string"},{"name":"description","type":"string","internalType":"string"},{"name":"targetAmount","type":"uint256","internalType":"uint256"},{"name":"raisedAmount","type":"uint256","internalType":"uint256"},{"name":"deadline","type":"uint256","internalType":"uint256"},{"name":"isActive","type":"bool","internalType":"bool"},{"name":"totalContributors","type":"uint256","internalType":"uint256"},{"name":"milestoneCount","type":"uint256","internalType":"uint256"},{"name":"milestoneBased","type":"bool","internalType":"bool"},{"name":"projectBalance","type":"uint256","internalType":"uint256"},{"name":"amountWithdrawn","type":"uint256","internalType":"uint256"},{"name":"milestoneStage","type":"uint256","internalType":"uint256"},{"name":"openForMilestoneVotingStage","type":"bool","internalType":"bool"},{"name":"votesForYes","type":"uint256","internalType":"uint256"},{"name":"votesForNo","type":"uint256","internalType":"uint256"},{"name":"timeForMilestoneVotingProcess","type":"uint256","internalType":"uint256"},{"name":"timeForTheVotingProcessToElapsed","type":"uint256","internalType":"uint256"}],"stateMutability":"view"},{"type":"function","name":"takeAVoteForMilestoneStageIncrease","inputs":[{"name":"_projectId","type":"uint256","internalType":"uint256"},{"name":"_vote","type":"bool","internalType":"bool"}],"outputs":[],"stateMutability":"nonpayable"},{"type":"function","name":"withdrawFunds","inputs":[{"name":"_amount","type":"uint256","internalType":"uint256"},{"name":"_projectId","type":"uint256","internalType":"uint256"},{"name":"_to","type":"address","internalType":"address payable"}],"outputs":[],"stateMutability":"nonpayable"},{"type":"event","name":"ProjectCreated","inputs":[{"name":"name","type":"string","indexed":true,"internalType":"string"},{"name":"targetAmount","type":"uint256","indexed":true,"internalType":"uint256"},{"name":"deadline","type":"uint256","indexed":true,"internalType":"uint256"}],"anonymous":false},{"type":"event","name":"ProjectFunded","inputs":[{"name":"name","type":"string","indexed":true,"internalType":"string"},{"name":"amountFunded","type":"uint256","indexed":true,"internalType":"uint256"},{"name":"funder","type":"address","indexed":true,"internalType":"address"}],"anonymous":false},{"type":"event","name":"WithDrawnFromProject","inputs":[{"name":"name","type":"string","indexed":true,"internalType":"string"},{"name":"amountWithdrawn","type":"uint256","indexed":true,"internalType":"uint256"},{"name":"Withdrawer","type":"address","indexed":true,"internalType":"address"}],"anonymous":false},{"type":"error","name":"StageRaise__AddressHasNotFundTheProject","inputs":[]},{"type":"error","name":"StageRaise__AmountToFundMustBeGreaterThanZero","inputs":[]},{"type":"error","name":"StageRaise__AmountToWithdrawMustBeGreaterThanZero","inputs":[]},{"type":"error","name":"StageRaise__CanOnlyBeCalledByProjectOwner","inputs":[]},{"type":"error","name":"StageRaise__CannotWithdrawWhileFundingIsActive","inputs":[]},{"type":"error","name":"StageRaise__DeadlineForFundingHasPassed","inputs":[]},{"type":"error","name":"StageRaise__DeadlineMustBeInFuture","inputs":[]},{"type":"error","name":"StageRaise__ETHTransferFailed","inputs":[]},{"type":"error","name":"StageRaise__FunderHasAlreadyVoted","inputs":[]},{"type":"error","name":"StageRaise__ProjectHasReachedTheFinalMileStoneStage","inputs":[]},{"type":"error","name":"StageRaise__ProjectIsNotOpenForMilestoneVotingProcess","inputs":[]},{"type":"error","name":"StageRaise__ProjectNotActive","inputs":[]},{"type":"error","name":"StageRaise__ProjectNotFound","inputs":[]},{"type":"error","name":"StageRaise__TargetAmountMustBeGreaterThanZero","inputs":[]},{"type":"error","name":"StageRaise__TimeHasNotPassedForTheVotingProcess","inputs":[]},{"type":"error","name":"StageRaise__TotalRaiseCantSurpassTargetRaise","inputs":[]},{"type":"error","name":"StageRaise__VotingPeriodHasPassed","inputs":[]},{"type":"error","name":"StageRaise__VotingProcessFormilestoneMustBeInFuture","inputs":[]},{"type":"error","name":"StageRaise__YouCannotHaveZeroMilestoneForAMileStoneProject","inputs":[]},{"type":"error","name":"StageRaise__YouCannotOpenNonMilestoneProjectForVoting","inputs":[]},{"type":"error","name":"StageRaise__YouCannotOpenProjectVotingWhileFundingIsOngoing","inputs":[]},{"type":"error","name":"StageRaise__YouCannotWithdrawMoreThanTheProjectBalance","inputs":[]},{"type":"error","name":"StageRaise__YouCannotWithdrawMoreThanWithdrawableBalance","inputs":[]}],"bytecode":{"object":"0x60808060405234601557611300908161001a8239f35b5f80fdfe6101406040526004361015610012575f80fd5b5f3560e01c8063034e390514610dab57806316c58df314610d7f5780632e60ee8e14610cca5780633085719314610c97578063381826e714610b945780633bcff3b014610b7757806349a3518814610a1b578063617de1c6146109ef5780636c563abe1461087657806373b402d31461084a57806378bb1625146106c65780637f90757d1461069a578063854cdc3f146106695780639ee8a91c146104ae578063ba5338e2146100f45763ff8c803c146100ca575f80fd5b346100f05760203660031901126100f05760206100e860043561125b565b604051908152f35b5f80fd5b346100f05760e03660031901126100f05760043567ffffffffffffffff81116100f057610125903690600401611091565b60243567ffffffffffffffff81116100f057610145903690600401611091565b906044356064359160843560a435908115158092036100f05760c435918542101561049f578415610490578080610488575b61047957821561046a5761018c600154611185565b806001555f525f60205260405f209160028301855167ffffffffffffffff81116103b8576101ba8254610f3a565b601f811161043a575b50806020601f82116001146103d7575f916103cc575b508160011b915f199060031b1c19161790555b336bffffffffffffffffffffffff60a01b845416178355600154600184015560038301885167ffffffffffffffff81116103b85761022a8254610f3a565b601f811161037d575b506020601f82116001146103115790806011969594939260209a9b9c5f92610306575b50508160011b915f199060031b1c19161790555b8760048401555f60058401555f600b84015588600684015560078301600160ff198254161790555f6008840155600182146102fa575b5f600c8401556009830155600a82019060ff801983541691161790550155604051918183925191829101835e81015f81520390207f9521ce2b130fcb65539a94f0c230d875ae9f27ff1d1abf10284c044d6762254c5f80a4005b6001600d8401556102a0565b015190508c80610256565b601f1982169a835f52815f209b5f5b81811061036557509b60019284926011999897969560209d9e9f1061034d575b505050811b01905561026a565b01515f1960f88460031b161c191690558c8080610340565b838301518e556001909d019c60209384019301610320565b6103a890835f5260205f20601f840160051c810191602085106103ae575b601f0160051c0190611245565b8a610233565b909150819061039b565b634e487b7160e01b5f52604160045260245ffd5b90508701518b6101d9565b5f8481528181209250601f198416905b8a828210610422575050908360019493921061040a575b5050811b0190556101ec565b8901515f1960f88460031b161c191690558b806103fe565b600184956020939584930151815501940192016103e7565b61046490835f5260205f20601f840160051c810191602085106103ae57601f0160051c0190611245565b8a6101c3565b631cb318fb60e11b5f5260045ffd5b63aae2c93760e01b5f5260045ffd5b508115610177565b637c9282a360e11b5f5260045ffd5b63a947d02160e01b5f5260045ffd5b346100f05760603660031901126100f0576004356024356044356001600160a01b038116908190036100f0575f828152602081905260409020546001600160a01b0316330361065a575f828152602081905260409020546001600160a01b03161561064b57821561063c57815f525f60205282600b60405f2001541061062d576105378261125b565b831161061e57815f525f602052600660405f20015442111561060f575f808085819486835282602052600b6040842001610572838254611238565b905586835282602052600c604084200161058d8382546110d7565b90555af13d1561060a573d6105a181611075565b906105af6040519283610f8f565b81525f60203d92013e5b156105fb575f525f60205233906105d5600260405f20016111bc565b7f3cb2e08616988fccffebad1827f83f2feecfa661f9d71506b64bcc37e38941835f80a4005b630ee97c6d60e01b5f5260045ffd5b6105b9565b634eb82fbd60e01b5f5260045ffd5b63020e779360e61b5f5260045ffd5b6329840ec360e11b5f5260045ffd5b630eb2143f60e21b5f5260045ffd5b63047308cf60e51b5f5260045ffd5b631751c95f60e21b5f5260045ffd5b346100f05760203660031901126100f0576004355f525f602052602060ff600e60405f200154166040519015158152f35b346100f05760203660031901126100f0576004355f525f6020526020600b60405f200154604051908152f35b346100f05760203660031901126100f0575f6101206040516106e781610f72565b82815260606020820152606060408201528260608201528260808201528260a08201528260c08201528260e08201528261010082015201526004355f525f60205260405f2060018060a01b0381541660048201546005830154600684015460ff60078601541660088601549060098701549260ff600a89015416946040519761076f89610f72565b8852610814610793600361078560028d01610fb1565b9b60208c019c8d5201610fb1565b60408a0190815260608a0198895260808a0192835260a08a0193845260c08a01941515855260e08a019586526101008a019687526101208a0197151588526108016040519b8c9b60208d5260018060a01b0390511660208d01525161014060408d01526101608c0190611051565b90518a8203601f190160608c0152611051565b965160808901525160a08801525160c087015251151560e086015251610100850152516101208401525115156101408301520390f35b346100f05760203660031901126100f0576004355f525f6020526020600f60405f200154604051908152f35b60203660031901126100f05760043534156109e0575f818152602081905260409020546001600160a01b03161561064b57805f525f60205260ff600760405f20015416156109d157805f525f6020526108d6600560405f200154346110d7565b815f525f602052600460405f200154106109c257805f525f602052600660405f20015442116109ac575f90815260208181526040808320338452601381019283905292205415610997575b600582016109303482546110d7565b9055600b82016109413482546110d7565b905560018060a01b0333165f5260205260405f206109603482546110d7565b9055339061097160023492016111bc565b7f07ccf6370b23192b238f47ccc38832bfe7088cf9c4488bb3e2bd0f430f26e3e95f80a4005b600882016109a58154611185565b9055610921565b505f60208190526345d061c760e01b8152600490fd5b63c61266bb60e01b5f5260045ffd5b631b60555960e01b5f5260045ffd5b63a2cc73b160e01b5f5260045ffd5b346100f05760203660031901126100f0576004355f525f6020526020600d60405f200154604051908152f35b346100f05760403660031901126100f0576004356024358015158091036100f0575f8281526020818152604080832033845260130190915290205415610b68575f82815260208181526040808320338452601481019283905292205490939060ff16610b595760ff600e8301541615610b4a5760128201544211610b3b57601592600103610b1b57610aad9033611116565b610abc600f83019182546110d7565b90555b018054680100000000000000008110156103b857610ae291600182018155611193565b81546001600160a01b0360039290921b91821b1916339182901b179091555f90815260209190915260409020805460ff19166001179055005b610b259033611116565b610b34601083019182546110d7565b9055610abf565b63166c887360e11b5f5260045ffd5b633757ed6b60e21b5f5260045ffd5b63019d204d60e21b5f5260045ffd5b63407c718f60e11b5f5260045ffd5b346100f0575f3660031901126100f0576020600154604051908152f35b346100f05760203660031901126100f057600435805f525f60205260405f209060128201544210610c8857600e82019160ff83541615610b4a57805f600f819301918254906010810191825410610c73575b5055555f525f60205260405f20905f6014601584019301905b8354811015610c425780610c1560019286611193565b838060a01b0391549060031b1c16828060a01b03165f528260205260405f2060ff19815416905501610bff565b828480545f825580610c59575b825460ff19168355005b610c6c915f5260205f2090810190611245565b8180610c4f565b600d01610c808154611185565b905586610be6565b63088de85160e11b5f5260045ffd5b346100f05760403660031901126100f0576004356001600160a01b03811681036100f0576100e860209160243590611116565b346100f05760203660031901126100f0576004355f818152602081905260409020546001600160a01b0316330361065a575f525f60205260405f2060ff600a8201541615610d7057600d81015460098201541115610d61576006810154421115610d5257600e8101600160ff198254161790556012610d4d4260118401546110d7565b910155005b632742dd1b60e21b5f5260045ffd5b63469c7e2760e11b5f5260045ffd5b638d56a25960e01b5f5260045ffd5b346100f05760203660031901126100f0576004355f525f6020526020600c60405f200154604051908152f35b346100f05760203660031901126100f0576004355f90815260208190526040902080546001820154610100526001600160a01b031690610ded60028201610fb1565b61012052610dfd60038201610fb1565b91600482015460e0526005820154926006830154600784015460ff1660088501546009860154600a87015460ff1690600b88015492600c89015494600d8a015496600e8b015460ff1698600f8c01549a60108d01549c60118101546080526012015460a05260405160c05260c051526101005160c0516020015260c051604001610260905260c051610260016101205190610e9791611051565b60c051810360c05160600152610eac91611051565b9b60e05160c0516080015260c05160a0015260c05160c00152151560c05160e0015260c051610100015260c0516101200152151560c051610140015260c051610160015260c051610180015260c0516101a00152151560c0516101c0015260c0516101e0015260c051610200015260805160c051610220015260a05160c051610240015260c051900360c051f35b90600182811c92168015610f68575b6020831014610f5457565b634e487b7160e01b5f52602260045260245ffd5b91607f1691610f49565b610140810190811067ffffffffffffffff8211176103b857604052565b90601f8019910116810190811067ffffffffffffffff8211176103b857604052565b9060405191825f825492610fc484610f3a565b808452936001811690811561102f5750600114610feb575b50610fe992500383610f8f565b565b90505f9291925260205f20905f915b818310611013575050906020610fe9928201015f610fdc565b6020919350806001915483858901015201910190918492610ffa565b905060209250610fe994915060ff191682840152151560051b8201015f610fdc565b805180835260209291819084018484015e5f828201840152601f01601f1916010190565b67ffffffffffffffff81116103b857601f01601f191660200190565b81601f820112156100f0578035906110a882611075565b926110b66040519485610f8f565b828452602083830101116100f057815f926020809301838601378301015290565b919082018092116110e457565b634e487b7160e01b5f52601160045260245ffd5b8115611102570490565b634e487b7160e01b5f52601260045260245ffd5b905f525f60205260405f209060018060a01b038254161561064b57601382019060018060a01b0381165f528160205260405f205415610b685760018060a01b03165f5260205260405f20546064810290808204606414901517156110e4576005611182920154906110f8565b90565b5f1981146110e45760010190565b80548210156111a8575f5260205f2001905f90565b634e487b7160e01b5f52603260045260245ffd5b60405180915f908054906111cf82610f3a565b916001811690811561122157506001146111ec575b505003902090565b9091505f5260205f205f905b82821061120a57505081015f806111e4565b8054828601528493506020909101906001016111f8565b60ff19168552505080151502820190505f806111e4565b919082039182116110e457565b818110611250575050565b5f8155600101611245565b5f90815260208190526040902080546001600160a01b0316156112c55760ff600a82015416156112be57600581015490600d810154918281029281840414901517156110e457600c6112b5611182936009840154906110f8565b91015490611238565b600b015490565b505f9056fea2646970667358221220d998a569acd294419fd7c872655e0521c00615299d1194eea91b23e94b7d2c4b64736f6c634300081c0033","linkReferences":{}},"methodIdentifiers":{"calculateFunderVotingPower(address,uint256)":"30857193","createProject(string,string,uint256,uint256,uint256,bool,uint256)":"ba5338e2","finalizeVotingProcess(uint256)":"381826e7","fundProject(uint256)":"6c563abe","getAmountWithdrawableForAProject(uint256)":"ff8c803c","getProjectAmountWithdrawn(uint256)":"16c58df3","getProjectBalance(uint256)":"7f90757d","getProjectBasicInfo(uint256)":"78bb1625","getProjectCount()":"3bcff3b0","getProjectMileStoneVotingStatus(uint256)":"854cdc3f","getProjectMilestoneStage(uint256)":"617de1c6","getProjectYesVotes(uint256)":"73b402d3","openProjectForMilestoneVotes(uint256)":"2e60ee8e","projectById(uint256)":"034e3905","takeAVoteForMilestoneStageIncrease(uint256,bool)":"49a35188","withdrawFunds(uint256,uint256,address)":"9ee8a91c"},"id":19}