{"abi":[{"type":"function","name":"calculateFunderVotingPower","inputs":[{"name":"_funder","type":"address","internalType":"address"},{"name":"_projectId","type":"uint256","internalType":"uint256"}],"outputs":[{"name":"votingPower","type":"uint256","internalType":"uint256"}],"stateMutability":"view"},{"type":"function","name":"createProject","inputs":[{"name":"_name","type":"string","internalType":"string"},{"name":"_description","type":"string","internalType":"string"},{"name":"_targetAmount","type":"uint256","internalType":"uint256"},{"name":"_deadline","type":"uint256","internalType":"uint256"},{"name":"_isActive","type":"bool","internalType":"bool"},{"name":"_milestoneCount","type":"uint256","internalType":"uint256"},{"name":"_milestoneBased","type":"bool","internalType":"bool"},{"name":"_timeForMileStoneVotingProcess","type":"uint256","internalType":"uint256"}],"outputs":[],"stateMutability":"nonpayable"},{"type":"function","name":"finalizeVotingProcess","inputs":[{"name":"_projectId","type":"uint256","internalType":"uint256"}],"outputs":[],"stateMutability":"nonpayable"},{"type":"function","name":"fundProject","inputs":[{"name":"_projectId","type":"uint256","internalType":"uint256"}],"outputs":[],"stateMutability":"payable"},{"type":"function","name":"getAmountWithdrawableForAProject","inputs":[{"name":"_projectId","type":"uint256","internalType":"uint256"}],"outputs":[{"name":"","type":"uint256","internalType":"uint256"}],"stateMutability":"view"},{"type":"function","name":"getProjectBasicInfo","inputs":[{"name":"_projectId","type":"uint256","internalType":"uint256"}],"outputs":[{"name":"","type":"tuple","internalType":"struct StageRaise.ProjectInfo","components":[{"name":"owner","type":"address","internalType":"address"},{"name":"name","type":"string","internalType":"string"},{"name":"description","type":"string","internalType":"string"},{"name":"targetAmount","type":"uint256","internalType":"uint256"},{"name":"raisedAmount","type":"uint256","internalType":"uint256"},{"name":"deadline","type":"uint256","internalType":"uint256"},{"name":"isActive","type":"bool","internalType":"bool"},{"name":"totalContributors","type":"uint256","internalType":"uint256"},{"name":"milestoneCount","type":"uint256","internalType":"uint256"},{"name":"milestoneBased","type":"bool","internalType":"bool"}]}],"stateMutability":"view"},{"type":"function","name":"getProjectCount","inputs":[],"outputs":[{"name":"","type":"uint256","internalType":"uint256"}],"stateMutability":"view"},{"type":"function","name":"openProjectForMilestoneVotes","inputs":[{"name":"_projectId","type":"uint256","internalType":"uint256"}],"outputs":[],"stateMutability":"nonpayable"},{"type":"function","name":"pauseOrContinueProjectFunding","inputs":[{"name":"_projectId","type":"uint256","internalType":"uint256"}],"outputs":[],"stateMutability":"nonpayable"},{"type":"function","name":"projectById","inputs":[{"name":"","type":"uint256","internalType":"uint256"}],"outputs":[{"name":"owner","type":"address","internalType":"address"},{"name":"projectId","type":"uint256","internalType":"uint256"},{"name":"name","type":"string","internalType":"string"},{"name":"description","type":"string","internalType":"string"},{"name":"targetAmount","type":"uint256","internalType":"uint256"},{"name":"raisedAmount","type":"uint256","internalType":"uint256"},{"name":"deadline","type":"uint256","internalType":"uint256"},{"name":"isActive","type":"bool","internalType":"bool"},{"name":"totalContributors","type":"uint256","internalType":"uint256"},{"name":"milestoneCount","type":"uint256","internalType":"uint256"},{"name":"milestoneBased","type":"bool","internalType":"bool"},{"name":"projectBalance","type":"uint256","internalType":"uint256"},{"name":"amountWithdrawn","type":"uint256","internalType":"uint256"},{"name":"milestoneStage","type":"uint256","internalType":"uint256"},{"name":"openForMilestoneVotingStage","type":"bool","internalType":"bool"},{"name":"votesForYes","type":"uint256","internalType":"uint256"},{"name":"votesForNo","type":"uint256","internalType":"uint256"},{"name":"timeForMilestoneVotingProcess","type":"uint256","internalType":"uint256"},{"name":"timeForTheVotingProcessToElapsed","type":"uint256","internalType":"uint256"}],"stateMutability":"view"},{"type":"function","name":"takeAVoteForMilestoneStageIncrease","inputs":[{"name":"_projectId","type":"uint256","internalType":"uint256"},{"name":"_vote","type":"bool","internalType":"bool"}],"outputs":[],"stateMutability":"nonpayable"},{"type":"function","name":"withdrawFunds","inputs":[{"name":"_amount","type":"uint256","internalType":"uint256"},{"name":"_projectId","type":"uint256","internalType":"uint256"},{"name":"_to","type":"address","internalType":"address payable"}],"outputs":[],"stateMutability":"nonpayable"},{"type":"event","name":"ProjectCreated","inputs":[{"name":"name","type":"string","indexed":true,"internalType":"string"},{"name":"targetAmount","type":"uint256","indexed":true,"internalType":"uint256"},{"name":"deadline","type":"uint256","indexed":true,"internalType":"uint256"}],"anonymous":false},{"type":"event","name":"ProjectFunded","inputs":[{"name":"name","type":"string","indexed":true,"internalType":"string"},{"name":"amountFunded","type":"uint256","indexed":true,"internalType":"uint256"},{"name":"funder","type":"address","indexed":true,"internalType":"address"}],"anonymous":false},{"type":"event","name":"WithDrawnFromProject","inputs":[{"name":"name","type":"string","indexed":true,"internalType":"string"},{"name":"amountWithdrawn","type":"uint256","indexed":true,"internalType":"uint256"},{"name":"Withdrawer","type":"address","indexed":true,"internalType":"address"}],"anonymous":false},{"type":"error","name":"StageRaise__AddressHasNotFundTheProject","inputs":[]},{"type":"error","name":"StageRaise__AmountToFundMustBeGreaterThanZero","inputs":[]},{"type":"error","name":"StageRaise__AmountToWithdrawMustBeGreaterThanZero","inputs":[]},{"type":"error","name":"StageRaise__CanOnlyBeCalledByProjectOwner","inputs":[]},{"type":"error","name":"StageRaise__DeadlineForFundingHasPassed","inputs":[]},{"type":"error","name":"StageRaise__DeadlineMustBeInFuture","inputs":[]},{"type":"error","name":"StageRaise__ETHTransferFailed","inputs":[]},{"type":"error","name":"StageRaise__FunderHasAlreadyVoted","inputs":[]},{"type":"error","name":"StageRaise__ProjectHasReachedTheFinalMileStoneStage","inputs":[]},{"type":"error","name":"StageRaise__ProjectIsNotOpenForMilestoneVotingProcess","inputs":[]},{"type":"error","name":"StageRaise__ProjectNotActive","inputs":[]},{"type":"error","name":"StageRaise__ProjectNotFound","inputs":[]},{"type":"error","name":"StageRaise__TargetAmountMustBeGreaterThanZero","inputs":[]},{"type":"error","name":"StageRaise__TimeHasNotPassedForTheVotingProcess","inputs":[]},{"type":"error","name":"StageRaise__TotalRaiseCantSurpassTargetRaise","inputs":[]},{"type":"error","name":"StageRaise__VotingPeriodHasPassed","inputs":[]},{"type":"error","name":"StageRaise__VotingProcessFormilestoneMustBeInFuture","inputs":[]},{"type":"error","name":"StageRaise__YouCannotHaveZeroMilestoneForAMileStoneProject","inputs":[]},{"type":"error","name":"StageRaise__YouCannotWithdrawFromActiveProject","inputs":[]},{"type":"error","name":"StageRaise__YouCannotWithdrawMoreThanTheProjectBalance","inputs":[]},{"type":"error","name":"StageRaise__YouCannotWithdrawMoreThanWithdrawableBalance","inputs":[]}],"bytecode":{"object":"0x6080806040523460155761123c908161001a8239f35b5f80fdfe6101406040526004361015610012575f80fd5b5f3560e01c8063034e390514610ce75780632e60ee8e14610c685780633085719314610c35578063381826e714610b325780633bcff3b014610b1557806349a35188146109b95780636c563abe1461084757806378bb1625146106c35780639ee8a91c14610517578063eb96fdca14610130578063fc7510e0146100c85763ff8c803c1461009e575f80fd5b346100c45760203660031901126100c45760206100bc600435611197565b604051908152f35b5f80fd5b346100c45760203660031901126100c4576004355f818152602081905260409020546001600160a01b03163303610121575f525f60205261011f600760405f200160ff8154161560ff801983541691151516179055565b005b631751c95f60e21b5f5260045ffd5b346100c4576101003660031901126100c45760043567ffffffffffffffff81116100c457610162903690600401610fcd565b60243567ffffffffffffffff81116100c457610182903690600401610fcd565b906044356064359160843580151581036100c45760a4359060c435801515928382036100c45760e43593874210156105085786156104f95780806104f1575b6104e25784156104d3576101d66001546110c1565b806001555f525f60205260405f209360028501875167ffffffffffffffff8111610421576102048254610e76565b601f81116104a3575b50806020601f8211600114610440575f91610435575b508160011b915f199060031b1c19161790555b336bffffffffffffffffffffffff60a01b8654161785556001546001860155600385018a519a67ffffffffffffffff8c11610421576102758254610e76565b8c601f82116103e5575b5050602090601f8d1160011461036f5761031a95936001938e60209d9e9f60119b9a98956102ee955f92610364575b50505f19600383901b1c191690861b1790555b8c60048901555f60058901555f600b8901558d6006890155600788019060ff801983541691151516179055565b5f600887015514610358575b5f600c8501556009840155600a83019060ff801983541691151516179055565b0155604051918183925191829101835e81015f81520390207f9521ce2b130fcb65539a94f0c230d875ae9f27ff1d1abf10284c044d6762254c5f80a4005b6001600d8501556102fa565b015190505f806102ae565b90601f198d1691835f52815f20925f5b8181106103cd575093600160209d9e9f60119b9a98956102ee9561031a9b999583859a106103b5575b505050811b0190556102c1565b01515f1960f88460031b161c191690555f80806103a8565b9293602060018192878601518155019501930161037f565b61041091845f5260205f20906020601f840160051c83019310610417575b601f0160051c0190611181565b8c8c61027f565b9091508190610403565b634e487b7160e01b5f52604160045260245ffd5b90508901518d610223565b5f8481528181209250601f198416905b8c82821061048b5750509083600194939210610473575b5050811b019055610236565b8b01515f1960f88460031b161c191690558d80610467565b60018495602093958493015181550194019201610450565b6104cd90835f5260205f20601f840160051c8101916020851061041757601f0160051c0190611181565b8c61020d565b631cb318fb60e11b5f5260045ffd5b63aae2c93760e01b5f5260045ffd5b5081156101c1565b637c9282a360e11b5f5260045ffd5b63a947d02160e01b5f5260045ffd5b346100c45760603660031901126100c4576004356024356044356001600160a01b038116908190036100c4575f828152602081905260409020546001600160a01b03163303610121575f828152602081905260409020546001600160a01b0316156106b45782156106a557815f525f60205260ff600760405f2001541661069657815f525f60205282600b60405f20015410610687576105b682611197565b8311610678575f808085819486835282602052600b60408420016105db838254611174565b905586835282602052600c60408420016105f6838254611013565b90555af13d15610673573d61060a81610fb1565b906106186040519283610ecb565b81525f60203d92013e5b15610664575f525f602052339061063e600260405f20016110f8565b7f3cb2e08616988fccffebad1827f83f2feecfa661f9d71506b64bcc37e38941835f80a4005b630ee97c6d60e01b5f5260045ffd5b610622565b63020e779360e61b5f5260045ffd5b6329840ec360e11b5f5260045ffd5b63f98464c760e01b5f5260045ffd5b630eb2143f60e21b5f5260045ffd5b63047308cf60e51b5f5260045ffd5b346100c45760203660031901126100c4575f6101206040516106e481610eae565b82815260606020820152606060408201528260608201528260808201528260a08201528260c08201528260e08201528261010082015201526004355f525f60205260405f2060018060a01b0381541660048201546005830154600684015460ff60078601541660088601549060098701549260ff600a89015416946040519761076c89610eae565b8852610811610790600361078260028d01610eed565b9b60208c019c8d5201610eed565b60408a0190815260608a0198895260808a0192835260a08a0193845260c08a01941515855260e08a019586526101008a019687526101208a0197151588526107fe6040519b8c9b60208d5260018060a01b0390511660208d01525161014060408d01526101608c0190610f8d565b90518a8203601f190160608c0152610f8d565b965160808901525160a08801525160c087015251151560e086015251610100850152516101208401525115156101408301520390f35b60203660031901126100c45760043534156109aa575f818152602081905260409020546001600160a01b0316156106b457805f525f60205260ff600760405f200154161561099b57805f525f6020526108a7600560405f20015434611013565b815f525f602052600460405f2001541061098c57805f525f602052600660405f200154421161097d575f90815260208181526040808320338452601381019283905292205415610968575b60058201610901348254611013565b9055600b8201610912348254611013565b905560018060a01b0333165f5260205260405f20610931348254611013565b9055339061094260023492016110f8565b7f07ccf6370b23192b238f47ccc38832bfe7088cf9c4488bb3e2bd0f430f26e3e95f80a4005b6008820161097681546110c1565b90556108f2565b6345d061c760e01b5f5260045ffd5b63c61266bb60e01b5f5260045ffd5b631b60555960e01b5f5260045ffd5b63a2cc73b160e01b5f5260045ffd5b346100c45760403660031901126100c4576004356024358015158091036100c4575f8281526020818152604080832033845260130190915290205415610b06575f82815260208181526040808320338452601481019283905292205490939060ff16610af75760ff600e8301541615610ae85760128201544211610ad957601592600103610ab957610a4b9033611052565b610a5a600f8301918254611013565b90555b0180546801000000000000000081101561042157610a80916001820181556110cf565b81546001600160a01b0360039290921b91821b1916339182901b179091555f90815260209190915260409020805460ff19166001179055005b610ac39033611052565b610ad260108301918254611013565b9055610a5d565b63166c887360e11b5f5260045ffd5b633757ed6b60e21b5f5260045ffd5b63019d204d60e21b5f5260045ffd5b63407c718f60e11b5f5260045ffd5b346100c4575f3660031901126100c4576020600154604051908152f35b346100c45760203660031901126100c457600435805f525f60205260405f209060128201544210610c2657600e82019160ff83541615610ae857805f600f819301918254906010810191825410610c11575b5055555f525f60205260405f20905f6014601584019301905b8354811015610be05780610bb3600192866110cf565b838060a01b0391549060031b1c16828060a01b03165f528260205260405f2060ff19815416905501610b9d565b828480545f825580610bf7575b825460ff19168355005b610c0a915f5260205f2090810190611181565b8180610bed565b600d01610c1e81546110c1565b905586610b84565b63088de85160e11b5f5260045ffd5b346100c45760403660031901126100c4576004356001600160a01b03811681036100c4576100bc60209160243590611052565b346100c45760203660031901126100c4576004355f818152602081905260409020546001600160a01b03163303610121575f525f60205260405f20600d81015460098201541115610cd857600e8101600160ff198254161790556012610cd360118301544290611013565b910155005b63469c7e2760e11b5f5260045ffd5b346100c45760203660031901126100c4576004355f90815260208190526040902080546001820154610100526001600160a01b031690610d2960028201610eed565b61012052610d3960038201610eed565b91600482015460e0526005820154926006830154600784015460ff1660088501546009860154600a87015460ff1690600b88015492600c89015494600d8a015496600e8b015460ff1698600f8c01549a60108d01549c60118101546080526012015460a05260405160c05260c051526101005160c0516020015260c051604001610260905260c051610260016101205190610dd391610f8d565b60c051810360c05160600152610de891610f8d565b9b60e05160c0516080015260c05160a0015260c05160c00152151560c05160e0015260c051610100015260c0516101200152151560c051610140015260c051610160015260c051610180015260c0516101a00152151560c0516101c0015260c0516101e0015260c051610200015260805160c051610220015260a05160c051610240015260c051900360c051f35b90600182811c92168015610ea4575b6020831014610e9057565b634e487b7160e01b5f52602260045260245ffd5b91607f1691610e85565b610140810190811067ffffffffffffffff82111761042157604052565b90601f8019910116810190811067ffffffffffffffff82111761042157604052565b9060405191825f825492610f0084610e76565b8084529360018116908115610f6b5750600114610f27575b50610f2592500383610ecb565b565b90505f9291925260205f20905f915b818310610f4f575050906020610f25928201015f610f18565b6020919350806001915483858901015201910190918492610f36565b905060209250610f2594915060ff191682840152151560051b8201015f610f18565b805180835260209291819084018484015e5f828201840152601f01601f1916010190565b67ffffffffffffffff811161042157601f01601f191660200190565b81601f820112156100c457803590610fe482610fb1565b92610ff26040519485610ecb565b828452602083830101116100c457815f926020809301838601378301015290565b9190820180921161102057565b634e487b7160e01b5f52601160045260245ffd5b811561103e570490565b634e487b7160e01b5f52601260045260245ffd5b905f525f60205260405f209060018060a01b03825416156106b457601382019060018060a01b0381165f528160205260405f205415610b065760018060a01b03165f5260205260405f20546064810290808204606414901517156110205760056110be92015490611034565b90565b5f1981146110205760010190565b80548210156110e4575f5260205f2001905f90565b634e487b7160e01b5f52603260045260245ffd5b60405180915f9080549061110b82610e76565b916001811690811561115d5750600114611128575b505003902090565b9091505f5260205f205f905b82821061114657505081015f80611120565b805482860152849350602090910190600101611134565b60ff19168552505080151502820190505f80611120565b9190820391821161102057565b81811061118c575050565b5f8155600101611181565b5f90815260208190526040902080546001600160a01b0316156112015760ff600a82015416156111fa57600581015490600d8101549182810292818404149015171561102057600c6111f16110be93600984015490611034565b91015490611174565b600b015490565b505f9056fea26469706673582212208afe781d967ae4e1f6ddde6b17cb32636dcc26dbe4e779aba346afedd68ecabe64736f6c634300081c0033","linkReferences":{}},"methodIdentifiers":{"calculateFunderVotingPower(address,uint256)":"30857193","createProject(string,string,uint256,uint256,bool,uint256,bool,uint256)":"eb96fdca","finalizeVotingProcess(uint256)":"381826e7","fundProject(uint256)":"6c563abe","getAmountWithdrawableForAProject(uint256)":"ff8c803c","getProjectBasicInfo(uint256)":"78bb1625","getProjectCount()":"3bcff3b0","openProjectForMilestoneVotes(uint256)":"2e60ee8e","pauseOrContinueProjectFunding(uint256)":"fc7510e0","projectById(uint256)":"034e3905","takeAVoteForMilestoneStageIncrease(uint256,bool)":"49a35188","withdrawFunds(uint256,uint256,address)":"9ee8a91c"},"id":19}