{"abi":[{"type":"function","name":"createProject","inputs":[{"name":"_name","type":"string","internalType":"string"},{"name":"_description","type":"string","internalType":"string"},{"name":"_targetAmount","type":"uint256","internalType":"uint256"},{"name":"_deadline","type":"uint256","internalType":"uint256"},{"name":"_isActive","type":"bool","internalType":"bool"},{"name":"_milestoneCount","type":"uint256","internalType":"uint256"},{"name":"_milestoneBased","type":"bool","internalType":"bool"}],"outputs":[],"stateMutability":"nonpayable"},{"type":"function","name":"fundProject","inputs":[{"name":"_projectId","type":"uint256","internalType":"uint256"}],"outputs":[],"stateMutability":"payable"},{"type":"function","name":"getProjectBasicInfo","inputs":[{"name":"_projectId","type":"uint256","internalType":"uint256"}],"outputs":[{"name":"owner","type":"address","internalType":"address"},{"name":"name","type":"string","internalType":"string"},{"name":"decription","type":"string","internalType":"string"},{"name":"targetAmount","type":"uint256","internalType":"uint256"},{"name":"raisedAmount","type":"uint256","internalType":"uint256"},{"name":"deadline","type":"uint256","internalType":"uint256"},{"name":"isActive","type":"bool","internalType":"bool"},{"name":"totalContributors","type":"uint256","internalType":"uint256"},{"name":"milestoneCount","type":"uint256","internalType":"uint256"},{"name":"milestoneBased","type":"bool","internalType":"bool"}],"stateMutability":"view"},{"type":"function","name":"getProjectCount","inputs":[],"outputs":[{"name":"","type":"uint256","internalType":"uint256"}],"stateMutability":"view"},{"type":"function","name":"projectById","inputs":[{"name":"","type":"uint256","internalType":"uint256"}],"outputs":[{"name":"owner","type":"address","internalType":"address"},{"name":"projectId","type":"uint256","internalType":"uint256"},{"name":"name","type":"string","internalType":"string"},{"name":"description","type":"string","internalType":"string"},{"name":"targetAmount","type":"uint256","internalType":"uint256"},{"name":"raisedAmount","type":"uint256","internalType":"uint256"},{"name":"deadline","type":"uint256","internalType":"uint256"},{"name":"isActive","type":"bool","internalType":"bool"},{"name":"totalContributors","type":"uint256","internalType":"uint256"},{"name":"milestoneCount","type":"uint256","internalType":"uint256"},{"name":"milestoneBased","type":"bool","internalType":"bool"}],"stateMutability":"view"},{"type":"event","name":"ProjectCreated","inputs":[{"name":"name","type":"string","indexed":true,"internalType":"string"},{"name":"targetAmount","type":"uint256","indexed":true,"internalType":"uint256"},{"name":"deadline","type":"uint256","indexed":true,"internalType":"uint256"}],"anonymous":false},{"type":"event","name":"ProjectFunded","inputs":[{"name":"name","type":"string","indexed":true,"internalType":"string"},{"name":"AmoutFunded","type":"uint256","indexed":true,"internalType":"uint256"},{"name":"Funder","type":"address","indexed":true,"internalType":"address"}],"anonymous":false},{"type":"error","name":"StageRaise__AmountToFundMustBeGreaterThanZero","inputs":[]},{"type":"error","name":"StageRaise__DeadlineMustBeInFuture","inputs":[]},{"type":"error","name":"StageRaise__ProjectNotActive","inputs":[]},{"type":"error","name":"StageRaise__ProjectNotFound","inputs":[]},{"type":"error","name":"StageRaise__TargetAmountMustBeGreaterThanZero","inputs":[]},{"type":"error","name":"StageRaise__TotalRaiseCantSurpassTargetRaise","inputs":[]}],"bytecode":{"object":"0x6080604052348015600e575f5ffd5b506112c78061001c5f395ff3fe608060405260043610610049575f3560e01c8063034e39051461004d5780630ff01352146100935780633bcff3b0146100bb5780636c563abe146100e557806378bb162514610101575b5f5ffd5b348015610058575f5ffd5b50610073600480360381019061006e9190610992565b610146565b60405161008a9b9a99989796959493929190610a95565b60405180910390f35b34801561009e575f5ffd5b506100b960048036038101906100b49190610ca2565b6102de565b005b3480156100c6575f5ffd5b506100cf6104a6565b6040516100dc9190610d77565b60405180910390f35b6100ff60048036038101906100fa9190610992565b6104af565b005b34801561010c575f5ffd5b5061012760048036038101906101229190610992565b610794565b60405161013d9a99989796959493929190610d90565b60405180910390f35b5f602052805f5260405f205f91509050805f015f9054906101000a900473ffffffffffffffffffffffffffffffffffffffff169080600101549080600201805461018f90610e65565b80601f01602080910402602001604051908101604052809291908181526020018280546101bb90610e65565b80156102065780601f106101dd57610100808354040283529160200191610206565b820191905f5260205f20905b8154815290600101906020018083116101e957829003601f168201915b50505050509080600301805461021b90610e65565b80601f016020809104026020016040519081016040528092919081815260200182805461024790610e65565b80156102925780601f1061026957610100808354040283529160200191610292565b820191905f5260205f20905b81548152906001019060200180831161027557829003601f168201915b505050505090806004015490806005015490806006015490806007015f9054906101000a900460ff169080600801549080600901549080600a015f9054906101000a900460ff1690508b565b834210610317576040517fa947d02100000000000000000000000000000000000000000000000000000000815260040160405180910390fd5b5f8511610350576040517ff925054600000000000000000000000000000000000000000000000000000000815260040160405180910390fd5b60015f81548092919061036290610ec2565b91905055505f5f5f60015481526020019081526020015f2090508781600201908161038d91906110a9565b5033815f015f6101000a81548173ffffffffffffffffffffffffffffffffffffffff021916908373ffffffffffffffffffffffffffffffffffffffff1602179055506001548160010181905550868160030190816103eb91906110a9565b508581600401819055505f816005018190555084816006018190555083816007015f6101000a81548160ff0219169083151502179055505f81600801819055505f81600801819055508281600901819055508181600a015f6101000a81548160ff02191690831515021790555084868960405161046891906111b2565b60405180910390207f9521ce2b130fcb65539a94f0c230d875ae9f27ff1d1abf10284c044d6762254c60405160405180910390a45050505050505050565b5f600154905090565b5f34116104e8576040517fa2cc73b100000000000000000000000000000000000000000000000000000000815260040160405180910390fd5b5f73ffffffffffffffffffffffffffffffffffffffff165f5f8381526020019081526020015f205f015f9054906101000a900473ffffffffffffffffffffffffffffffffffffffff1673ffffffffffffffffffffffffffffffffffffffff160361057e576040517f8e6119e000000000000000000000000000000000000000000000000000000000815260040160405180910390fd5b5f5f8281526020019081526020015f206007015f9054906101000a900460ff166105d4576040517f1b60555900000000000000000000000000000000000000000000000000000000815260040160405180910390fd5b5f5f8281526020019081526020015f20600401545f5f8381526020019081526020015f20600501543461060791906111c8565b111561063f576040517fc61266bb00000000000000000000000000000000000000000000000000000000815260040160405180910390fd5b5f5f5f8381526020019081526020015f20905034816005015f82825461066591906111c8565b9250508190555080600b0133908060018154018082558091505060019003905f5260205f20015f9091909190916101000a81548173ffffffffffffffffffffffffffffffffffffffff021916908373ffffffffffffffffffffffffffffffffffffffff16021790555080600b018054905081600801819055503481600c015f3373ffffffffffffffffffffffffffffffffffffffff1673ffffffffffffffffffffffffffffffffffffffff1681526020019081526020015f205f82825461072c91906111c8565b925050819055503373ffffffffffffffffffffffffffffffffffffffff16348260020160405161075c919061127b565b60405180910390207f07ccf6370b23192b238f47ccc38832bfe7088cf9c4488bb3e2bd0f430f26e3e960405160405180910390a45050565b5f6060805f5f5f5f5f5f5f5f5f5f8d81526020019081526020015f209050805f015f9054906101000a900473ffffffffffffffffffffffffffffffffffffffff168160020182600301836004015484600501548560060154866007015f9054906101000a900460ff168760080154886009015489600a015f9054906101000a900460ff1688805461082490610e65565b80601f016020809104026020016040519081016040528092919081815260200182805461085090610e65565b801561089b5780601f106108725761010080835404028352916020019161089b565b820191905f5260205f20905b81548152906001019060200180831161087e57829003601f168201915b505050505098508780546108ae90610e65565b80601f01602080910402602001604051908101604052809291908181526020018280546108da90610e65565b80156109255780601f106108fc57610100808354040283529160200191610925565b820191905f5260205f20905b81548152906001019060200180831161090857829003601f168201915b505050505097509a509a509a509a509a509a509a509a509a509a50509193959799509193959799565b5f604051905090565b5f5ffd5b5f5ffd5b5f819050919050565b6109718161095f565b811461097b575f5ffd5b50565b5f8135905061098c81610968565b92915050565b5f602082840312156109a7576109a6610957565b5b5f6109b48482850161097e565b91505092915050565b5f73ffffffffffffffffffffffffffffffffffffffff82169050919050565b5f6109e6826109bd565b9050919050565b6109f6816109dc565b82525050565b610a058161095f565b82525050565b5f81519050919050565b5f82825260208201905092915050565b8281835e5f83830152505050565b5f601f19601f8301169050919050565b5f610a4d82610a0b565b610a578185610a15565b9350610a67818560208601610a25565b610a7081610a33565b840191505092915050565b5f8115159050919050565b610a8f81610a7b565b82525050565b5f61016082019050610aa95f83018e6109ed565b610ab6602083018d6109fc565b8181036040830152610ac8818c610a43565b90508181036060830152610adc818b610a43565b9050610aeb608083018a6109fc565b610af860a08301896109fc565b610b0560c08301886109fc565b610b1260e0830187610a86565b610b206101008301866109fc565b610b2e6101208301856109fc565b610b3c610140830184610a86565b9c9b505050505050505050505050565b5f5ffd5b5f5ffd5b7f4e487b71000000000000000000000000000000000000000000000000000000005f52604160045260245ffd5b610b8a82610a33565b810181811067ffffffffffffffff82111715610ba957610ba8610b54565b5b80604052505050565b5f610bbb61094e565b9050610bc78282610b81565b919050565b5f67ffffffffffffffff821115610be657610be5610b54565b5b610bef82610a33565b9050602081019050919050565b828183375f83830152505050565b5f610c1c610c1784610bcc565b610bb2565b905082815260208101848484011115610c3857610c37610b50565b5b610c43848285610bfc565b509392505050565b5f82601f830112610c5f57610c5e610b4c565b5b8135610c6f848260208601610c0a565b91505092915050565b610c8181610a7b565b8114610c8b575f5ffd5b50565b5f81359050610c9c81610c78565b92915050565b5f5f5f5f5f5f5f60e0888a031215610cbd57610cbc610957565b5b5f88013567ffffffffffffffff811115610cda57610cd961095b565b5b610ce68a828b01610c4b565b975050602088013567ffffffffffffffff811115610d0757610d0661095b565b5b610d138a828b01610c4b565b9650506040610d248a828b0161097e565b9550506060610d358a828b0161097e565b9450506080610d468a828b01610c8e565b93505060a0610d578a828b0161097e565b92505060c0610d688a828b01610c8e565b91505092959891949750929550565b5f602082019050610d8a5f8301846109fc565b92915050565b5f61014082019050610da45f83018d6109ed565b8181036020830152610db6818c610a43565b90508181036040830152610dca818b610a43565b9050610dd9606083018a6109fc565b610de660808301896109fc565b610df360a08301886109fc565b610e0060c0830187610a86565b610e0d60e08301866109fc565b610e1b6101008301856109fc565b610e29610120830184610a86565b9b9a5050505050505050505050565b7f4e487b71000000000000000000000000000000000000000000000000000000005f52602260045260245ffd5b5f6002820490506001821680610e7c57607f821691505b602082108103610e8f57610e8e610e38565b5b50919050565b7f4e487b71000000000000000000000000000000000000000000000000000000005f52601160045260245ffd5b5f610ecc8261095f565b91507fffffffffffffffffffffffffffffffffffffffffffffffffffffffffffffffff8203610efe57610efd610e95565b5b600182019050919050565b5f819050815f5260205f209050919050565b5f6020601f8301049050919050565b5f82821b905092915050565b5f60088302610f657fffffffffffffffffffffffffffffffffffffffffffffffffffffffffffffffff82610f2a565b610f6f8683610f2a565b95508019841693508086168417925050509392505050565b5f819050919050565b5f610faa610fa5610fa08461095f565b610f87565b61095f565b9050919050565b5f819050919050565b610fc383610f90565b610fd7610fcf82610fb1565b848454610f36565b825550505050565b5f5f905090565b610fee610fdf565b610ff9818484610fba565b505050565b5b8181101561101c576110115f82610fe6565b600181019050610fff565b5050565b601f8211156110615761103281610f09565b61103b84610f1b565b8101602085101561104a578190505b61105e61105685610f1b565b830182610ffe565b50505b505050565b5f82821c905092915050565b5f6110815f1984600802611066565b1980831691505092915050565b5f6110998383611072565b9150826002028217905092915050565b6110b282610a0b565b67ffffffffffffffff8111156110cb576110ca610b54565b5b6110d58254610e65565b6110e0828285611020565b5f60209050601f831160018114611111575f84156110ff578287015190505b611109858261108e565b865550611170565b601f19841661111f86610f09565b5f5b8281101561114657848901518255600182019150602085019450602081019050611121565b86831015611163578489015161115f601f891682611072565b8355505b6001600288020188555050505b505050505050565b5f81905092915050565b5f61118c82610a0b565b6111968185611178565b93506111a6818560208601610a25565b80840191505092915050565b5f6111bd8284611182565b915081905092915050565b5f6111d28261095f565b91506111dd8361095f565b92508282019050808211156111f5576111f4610e95565b5b92915050565b5f815461120781610e65565b6112118186611178565b9450600182165f811461122b576001811461124057611272565b60ff1983168652811515820286019350611272565b61124985610f09565b5f5b8381101561126a5781548189015260018201915060208101905061124b565b838801955050505b50505092915050565b5f61128682846111fb565b91508190509291505056fea26469706673582212205f92f2edb94df60fe47d5f7ae678bfe88b5b7b581fff1064f21c20645fb407b964736f6c634300081c0033","linkReferences":{}},"methodIdentifiers":{"createProject(string,string,uint256,uint256,bool,uint256,bool)":"0ff01352","fundProject(uint256)":"6c563abe","getProjectBasicInfo(uint256)":"78bb1625","getProjectCount()":"3bcff3b0","projectById(uint256)":"034e3905"},"id":19}